{"abi":[{"type":"constructor","inputs":[],"stateMutability":"nonpayable"},{"type":"function","name":"DEFAULT_ADMIN_ROLE","inputs":[],"outputs":[{"name":"","type":"bytes32","internalType":"bytes32"}],"stateMutability":"view"},{"type":"function","name":"MINTER_ROLE","inputs":[],"outputs":[{"name":"","type":"bytes32","internalType":"bytes32"}],"stateMutability":"view"},{"type":"function","name":"UPGRADER_ROLE","inputs":[],"outputs":[{"name":"","type":"bytes32","internalType":"bytes32"}],"stateMutability":"view"},{"type":"function","name":"UPGRADE_INTERFACE_VERSION","inputs":[],"outputs":[{"name":"","type":"string","internalType":"string"}],"stateMutability":"view"},{"type":"function","name":"VERIFIER_ROLE","inputs":[],"outputs":[{"name":"","type":"bytes32","internalType":"bytes32"}],"stateMutability":"view"},{"type":"function","name":"balanceOf","inputs":[{"name":"account","type":"address","internalType":"address"},{"name":"id","type":"uint256","internalType":"uint256"}],"outputs":[{"name":"","type":"uint256","internalType":"uint256"}],"stateMutability":"view"},{"type":"function","name":"balanceOfBatch","inputs":[{"name":"accounts","type":"address[]","internalType":"address[]"},{"name":"ids","type":"uint256[]","internalType":"uint256[]"}],"outputs":[{"name":"","type":"uint256[]","internalType":"uint256[]"}],"stateMutability":"view"},{"type":"function","name":"deactivateProject","inputs":[{"name":"projectId","type":"uint256","internalType":"uint256"}],"outputs":[],"stateMutability":"nonpayable"},{"type":"function","name":"decodeTokenId","inputs":[{"name":"tokenId","type":"uint256","internalType":"uint256"}],"outputs":[{"name":"projectId","type":"uint256","internalType":"uint256"},{"name":"vintage","type":"uint16","internalType":"uint16"},{"name":"category","type":"uint8","internalType":"enum CarbonCreditToken.Category"}],"stateMutability":"pure"},{"type":"function","name":"encodeTokenId","inputs":[{"name":"projectId","type":"uint256","internalType":"uint256"},{"name":"vintage","type":"uint16","internalType":"uint16"},{"name":"category","type":"uint8","internalType":"enum CarbonCreditToken.Category"}],"outputs":[{"name":"tokenId","type":"uint256","internalType":"uint256"}],"stateMutability":"pure"},{"type":"function","name":"getProject","inputs":[{"name":"projectId","type":"uint256","internalType":"uint256"}],"outputs":[{"name":"","type":"tuple","internalType":"struct CarbonCreditToken.Project","components":[{"name":"name","type":"string","internalType":"string"},{"name":"methodology","type":"string","internalType":"string"},{"name":"verifier","type":"string","internalType":"string"},{"name":"location","type":"string","internalType":"string"},{"name":"category","type":"uint8","internalType":"enum CarbonCreditToken.Category"},{"name":"vintage","type":"uint16","internalType":"uint16"},{"name":"qualityScore","type":"uint8","internalType":"uint8"},{"name":"verified","type":"bool","internalType":"bool"},{"name":"active","type":"bool","internalType":"bool"},{"name":"totalMinted","type":"uint256","internalType":"uint256"},{"name":"totalRetired","type":"uint256","internalType":"uint256"}]}],"stateMutability":"view"},{"type":"function","name":"getRoleAdmin","inputs":[{"name":"role","type":"bytes32","internalType":"bytes32"}],"outputs":[{"name":"","type":"bytes32","internalType":"bytes32"}],"stateMutability":"view"},{"type":"function","name":"getUserCategoryRetirements","inputs":[{"name":"user","type":"address","internalType":"address"},{"name":"category","type":"uint8","internalType":"enum CarbonCreditToken.Category"}],"outputs":[{"name":"total","type":"uint256","internalType":"uint256"}],"stateMutability":"view"},{"type":"function","name":"getUserRetirements","inputs":[{"name":"user","type":"address","internalType":"address"},{"name":"tokenId","type":"uint256","internalType":"uint256"}],"outputs":[{"name":"","type":"uint256","internalType":"uint256"}],"stateMutability":"view"},{"type":"function","name":"grantRole","inputs":[{"name":"role","type":"bytes32","internalType":"bytes32"},{"name":"account","type":"address","internalType":"address"}],"outputs":[],"stateMutability":"nonpayable"},{"type":"function","name":"guardianNFT","inputs":[],"outputs":[{"name":"","type":"address","internalType":"contract GuardianNFT"}],"stateMutability":"view"},{"type":"function","name":"hasRole","inputs":[{"name":"role","type":"bytes32","internalType":"bytes32"},{"name":"account","type":"address","internalType":"address"}],"outputs":[{"name":"","type":"bool","internalType":"bool"}],"stateMutability":"view"},{"type":"function","name":"initialize","inputs":[{"name":"defaultAdmin","type":"address","internalType":"address"},{"name":"baseURI","type":"string","internalType":"string"}],"outputs":[],"stateMutability":"nonpayable"},{"type":"function","name":"isApprovedForAll","inputs":[{"name":"account","type":"address","internalType":"address"},{"name":"operator","type":"address","internalType":"address"}],"outputs":[{"name":"","type":"bool","internalType":"bool"}],"stateMutability":"view"},{"type":"function","name":"mint","inputs":[{"name":"to","type":"address","internalType":"address"},{"name":"projectId","type":"uint256","internalType":"uint256"},{"name":"amount","type":"uint256","internalType":"uint256"}],"outputs":[],"stateMutability":"nonpayable"},{"type":"function","name":"mintBatch","inputs":[{"name":"to","type":"address","internalType":"address"},{"name":"projectIds","type":"uint256[]","internalType":"uint256[]"},{"name":"amounts","type":"uint256[]","internalType":"uint256[]"}],"outputs":[],"stateMutability":"nonpayable"},{"type":"function","name":"nextProjectId","inputs":[],"outputs":[{"name":"","type":"uint256","internalType":"uint256"}],"stateMutability":"view"},{"type":"function","name":"projects","inputs":[{"name":"","type":"uint256","internalType":"uint256"}],"outputs":[{"name":"name","type":"string","internalType":"string"},{"name":"methodology","type":"string","internalType":"string"},{"name":"verifier","type":"string","internalType":"string"},{"name":"location","type":"string","internalType":"string"},{"name":"category","type":"uint8","internalType":"enum CarbonCreditToken.Category"},{"name":"vintage","type":"uint16","internalType":"uint16"},{"name":"qualityScore","type":"uint8","internalType":"uint8"},{"name":"verified","type":"bool","internalType":"bool"},{"name":"active","type":"bool","internalType":"bool"},{"name":"totalMinted","type":"uint256","internalType":"uint256"},{"name":"totalRetired","type":"uint256","internalType":"uint256"}],"stateMutability":"view"},{"type":"function","name":"proxiableUUID","inputs":[],"outputs":[{"name":"","type":"bytes32","internalType":"bytes32"}],"stateMutability":"view"},{"type":"function","name":"registerProject","inputs":[{"name":"name","type":"string","internalType":"string"},{"name":"methodology","type":"string","internalType":"string"},{"name":"verifier","type":"string","internalType":"string"},{"name":"location","type":"string","internalType":"string"},{"name":"category","type":"uint8","internalType":"enum CarbonCreditToken.Category"},{"name":"vintage","type":"uint16","internalType":"uint16"}],"outputs":[{"name":"projectId","type":"uint256","internalType":"uint256"}],"stateMutability":"nonpayable"},{"type":"function","name":"renounceRole","inputs":[{"name":"role","type":"bytes32","internalType":"bytes32"},{"name":"callerConfirmation","type":"address","internalType":"address"}],"outputs":[],"stateMutability":"nonpayable"},{"type":"function","name":"retire","inputs":[{"name":"tokenId","type":"uint256","internalType":"uint256"},{"name":"amount","type":"uint256","internalType":"uint256"},{"name":"retirementNote","type":"string","internalType":"string"}],"outputs":[],"stateMutability":"nonpayable"},{"type":"function","name":"retireBatch","inputs":[{"name":"tokenIds","type":"uint256[]","internalType":"uint256[]"},{"name":"amounts","type":"uint256[]","internalType":"uint256[]"},{"name":"retirementNote","type":"string","internalType":"string"}],"outputs":[],"stateMutability":"nonpayable"},{"type":"function","name":"revokeRole","inputs":[{"name":"role","type":"bytes32","internalType":"bytes32"},{"name":"account","type":"address","internalType":"address"}],"outputs":[],"stateMutability":"nonpayable"},{"type":"function","name":"safeBatchTransferFrom","inputs":[{"name":"from","type":"address","internalType":"address"},{"name":"to","type":"address","internalType":"address"},{"name":"ids","type":"uint256[]","internalType":"uint256[]"},{"name":"values","type":"uint256[]","internalType":"uint256[]"},{"name":"data","type":"bytes","internalType":"bytes"}],"outputs":[],"stateMutability":"nonpayable"},{"type":"function","name":"safeTransferFrom","inputs":[{"name":"from","type":"address","internalType":"address"},{"name":"to","type":"address","internalType":"address"},{"name":"id","type":"uint256","internalType":"uint256"},{"name":"value","type":"uint256","internalType":"uint256"},{"name":"data","type":"bytes","internalType":"bytes"}],"outputs":[],"stateMutability":"nonpayable"},{"type":"function","name":"setApprovalForAll","inputs":[{"name":"operator","type":"address","internalType":"address"},{"name":"approved","type":"bool","internalType":"bool"}],"outputs":[],"stateMutability":"nonpayable"},{"type":"function","name":"setBaseURI","inputs":[{"name":"newBaseURI","type":"string","internalType":"string"}],"outputs":[],"stateMutability":"nonpayable"},{"type":"function","name":"setGuardianNFT","inputs":[{"name":"_guardianNFT","type":"address","internalType":"address"}],"outputs":[],"stateMutability":"nonpayable"},{"type":"function","name":"supportsInterface","inputs":[{"name":"interfaceId","type":"bytes4","internalType":"bytes4"}],"outputs":[{"name":"","type":"bool","internalType":"bool"}],"stateMutability":"view"},{"type":"function","name":"tokenRetirements","inputs":[{"name":"","type":"uint256","internalType":"uint256"}],"outputs":[{"name":"","type":"uint256","internalType":"uint256"}],"stateMutability":"view"},{"type":"function","name":"upgradeToAndCall","inputs":[{"name":"newImplementation","type":"address","internalType":"address"},{"name":"data","type":"bytes","internalType":"bytes"}],"outputs":[],"stateMutability":"payable"},{"type":"function","name":"uri","inputs":[{"name":"tokenId","type":"uint256","internalType":"uint256"}],"outputs":[{"name":"","type":"string","internalType":"string"}],"stateMutability":"view"},{"type":"function","name":"userRetirements","inputs":[{"name":"","type":"address","internalType":"address"},{"name":"","type":"uint256","internalType":"uint256"}],"outputs":[{"name":"","type":"uint256","internalType":"uint256"}],"stateMutability":"view"},{"type":"function","name":"verifyProject","inputs":[{"name":"projectId","type":"uint256","internalType":"uint256"},{"name":"qualityScore","type":"uint8","internalType":"uint8"}],"outputs":[],"stateMutability":"nonpayable"},{"type":"event","name":"ApprovalForAll","inputs":[{"name":"account","type":"address","indexed":true,"internalType":"address"},{"name":"operator","type":"address","indexed":true,"internalType":"address"},{"name":"approved","type":"bool","indexed":false,"internalType":"bool"}],"anonymous":false},{"type":"event","name":"CarbonMinted","inputs":[{"name":"tokenId","type":"uint256","indexed":true,"internalType":"uint256"},{"name":"to","type":"address","indexed":true,"internalType":"address"},{"name":"amount","type":"uint256","indexed":false,"internalType":"uint256"},{"name":"projectId","type":"uint256","indexed":false,"internalType":"uint256"},{"name":"vintage","type":"uint16","indexed":false,"internalType":"uint16"},{"name":"category","type":"uint8","indexed":false,"internalType":"enum CarbonCreditToken.Category"}],"anonymous":false},{"type":"event","name":"CarbonRetired","inputs":[{"name":"tokenId","type":"uint256","indexed":true,"internalType":"uint256"},{"name":"user","type":"address","indexed":true,"internalType":"address"},{"name":"amount","type":"uint256","indexed":false,"internalType":"uint256"},{"name":"projectId","type":"uint256","indexed":false,"internalType":"uint256"},{"name":"vintage","type":"uint16","indexed":false,"internalType":"uint16"},{"name":"category","type":"uint8","indexed":false,"internalType":"enum CarbonCreditToken.Category"},{"name":"retirementNote","type":"string","indexed":false,"internalType":"string"}],"anonymous":false},{"type":"event","name":"Initialized","inputs":[{"name":"version","type":"uint64","indexed":false,"internalType":"uint64"}],"anonymous":false},{"type":"event","name":"ProjectRegistered","inputs":[{"name":"projectId","type":"uint256","indexed":true,"internalType":"uint256"},{"name":"name","type":"string","indexed":false,"internalType":"string"},{"name":"category","type":"uint8","indexed":false,"internalType":"enum CarbonCreditToken.Category"},{"name":"vintage","type":"uint16","indexed":false,"internalType":"uint16"},{"name":"registeredBy","type":"address","indexed":true,"internalType":"address"}],"anonymous":false},{"type":"event","name":"ProjectVerified","inputs":[{"name":"projectId","type":"uint256","indexed":true,"internalType":"uint256"},{"name":"qualityScore","type":"uint8","indexed":false,"internalType":"uint8"},{"name":"verifiedBy","type":"address","indexed":true,"internalType":"address"}],"anonymous":false},{"type":"event","name":"RoleAdminChanged","inputs":[{"name":"role","type":"bytes32","indexed":true,"internalType":"bytes32"},{"name":"previousAdminRole","type":"bytes32","indexed":true,"internalType":"bytes32"},{"name":"newAdminRole","type":"bytes32","indexed":true,"internalType":"bytes32"}],"anonymous":false},{"type":"event","name":"RoleGranted","inputs":[{"name":"role","type":"bytes32","indexed":true,"internalType":"bytes32"},{"name":"account","type":"address","indexed":true,"internalType":"address"},{"name":"sender","type":"address","indexed":true,"internalType":"address"}],"anonymous":false},{"type":"event","name":"RoleRevoked","inputs":[{"name":"role","type":"bytes32","indexed":true,"internalType":"bytes32"},{"name":"account","type":"address","indexed":true,"internalType":"address"},{"name":"sender","type":"address","indexed":true,"internalType":"address"}],"anonymous":false},{"type":"event","name":"TransferBatch","inputs":[{"name":"operator","type":"address","indexed":true,"internalType":"address"},{"name":"from","type":"address","indexed":true,"internalType":"address"},{"name":"to","type":"address","indexed":true,"internalType":"address"},{"name":"ids","type":"uint256[]","indexed":false,"internalType":"uint256[]"},{"name":"values","type":"uint256[]","indexed":false,"internalType":"uint256[]"}],"anonymous":false},{"type":"event","name":"TransferSingle","inputs":[{"name":"operator","type":"address","indexed":true,"internalType":"address"},{"name":"from","type":"address","indexed":true,"internalType":"address"},{"name":"to","type":"address","indexed":true,"internalType":"address"},{"name":"id","type":"uint256","indexed":false,"internalType":"uint256"},{"name":"value","type":"uint256","indexed":false,"internalType":"uint256"}],"anonymous":false},{"type":"event","name":"URI","inputs":[{"name":"value","type":"string","indexed":false,"internalType":"string"},{"name":"id","type":"uint256","indexed":true,"internalType":"uint256"}],"anonymous":false},{"type":"event","name":"Upgraded","inputs":[{"name":"implementation","type":"address","indexed":true,"internalType":"address"}],"anonymous":false},{"type":"error","name":"AccessControlBadConfirmation","inputs":[]},{"type":"error","name":"AccessControlUnauthorizedAccount","inputs":[{"name":"account","type":"address","internalType":"address"},{"name":"neededRole","type":"bytes32","internalType":"bytes32"}]},{"type":"error","name":"AddressEmptyCode","inputs":[{"name":"target","type":"address","internalType":"address"}]},{"type":"error","name":"ERC1155InsufficientBalance","inputs":[{"name":"sender","type":"address","internalType":"address"},{"name":"balance","type":"uint256","internalType":"uint256"},{"name":"needed","type":"uint256","internalType":"uint256"},{"name":"tokenId","type":"uint256","internalType":"uint256"}]},{"type":"error","name":"ERC1155InvalidApprover","inputs":[{"name":"approver","type":"address","internalType":"address"}]},{"type":"error","name":"ERC1155InvalidArrayLength","inputs":[{"name":"idsLength","type":"uint256","internalType":"uint256"},{"name":"valuesLength","type":"uint256","internalType":"uint256"}]},{"type":"error","name":"ERC1155InvalidOperator","inputs":[{"name":"operator","type":"address","internalType":"address"}]},{"type":"error","name":"ERC1155InvalidReceiver","inputs":[{"name":"receiver","type":"address","internalType":"address"}]},{"type":"error","name":"ERC1155InvalidSender","inputs":[{"name":"sender","type":"address","internalType":"address"}]},{"type":"error","name":"ERC1155MissingApprovalForAll","inputs":[{"name":"operator","type":"address","internalType":"address"},{"name":"owner","type":"address","internalType":"address"}]},{"type":"error","name":"ERC1967InvalidImplementation","inputs":[{"name":"implementation","type":"address","internalType":"address"}]},{"type":"error","name":"ERC1967NonPayable","inputs":[]},{"type":"error","name":"FailedCall","inputs":[]},{"type":"error","name":"InsufficientBalance","inputs":[]},{"type":"error","name":"InvalidInitialization","inputs":[]},{"type":"error","name":"InvalidQualityScore","inputs":[]},{"type":"error","name":"InvalidVintage","inputs":[]},{"type":"error","name":"NotInitializing","inputs":[]},{"type":"error","name":"ProjectNotActive","inputs":[]},{"type":"error","name":"ProjectNotFound","inputs":[]},{"type":"error","name":"ProjectNotVerified","inputs":[]},{"type":"error","name":"UUPSUnauthorizedCallContext","inputs":[]},{"type":"error","name":"UUPSUnsupportedProxiableUUID","inputs":[{"name":"slot","type":"bytes32","internalType":"bytes32"}]},{"type":"error","name":"ZeroAmount","inputs":[]}],"bytecode":{"object":"0x60a080604052346100e857306080527ff0c57e16840df040f15088dc2f81fe391c3923bec73e23a9662efc9c229c6a005460ff8160401c166100d9576002600160401b03196001600160401b03821601610073575b604051613b6690816100ed8239608051818181610dc30152610ef50152f35b6001600160401b0319166001600160401b039081177ff0c57e16840df040f15088dc2f81fe391c3923bec73e23a9662efc9c229c6a005581527fc7f505b2f371ae2175ee4913f4499e1f2633a7b5936321eed1cdaeb6115181d290602090a15f80610054565b63f92ee8a960e01b5f5260045ffd5b5f80fdfe60806040526004361015610011575f80fd5b5f3560e01c8062fdd58e1461028e57806301ffc9a7146102895780630e89341c14610284578063107046bd1461027f578063156e29f61461027a578063248a9ca3146102755780632eb2c2d6146102705780632f2ff15d1461026b5780632f3236701461026657806336568abe14610261578063436e69581461025c5780634e1273f4146102575780634f1ef2861461025257806352d1902d1461024d57806355f804b31461024857806369fbce571461024357806374d1eb1f1461023e5780637efd91121461023957806391d1485414610234578063963663bb146101fd578063a0ef91b21461022f578063a217fddf1461022a578063a22cb46514610225578063ad3cb1cc14610220578063cfe0ce281461021b578063d539139314610216578063d547741f14610211578063d683f1511461020c578063d81d0a1514610207578063de435bad14610202578063e3c30ea7146101fd578063e7705db6146101f8578063e935b7b1146101f3578063e985e9c5146101ee578063f0f3f2c8146101e9578063f242432a146101e4578063f399e22e146101df578063f4788ec1146101da578063f72c0d8b146101d55763f973b850146101d0575f80fd5b611f70565b611f36565b611d79565b611bdc565b611ae8565b611a43565b61194c565b611930565b6118f6565b6113d3565b611884565b6116be565b611696565b611665565b61162b565b6115e8565b6115a1565b6114fc565b6114e2565b611418565b611378565b611339565b6110d4565b61107a565b610f67565b610ee3565b610d85565b610cc6565b610c2f565b610beb565b610b1e565b610aca565b610a3e565b61091e565b6107c2565b610730565b610412565b610351565b6102d7565b600435906001600160a01b03821682036102a957565b5f80fd5b602435906001600160a01b03821682036102a957565b35906001600160a01b03821682036102a957565b346102a95760403660031901126102a95760206103366102f5610293565b6024355f527f88be536d5240c274a3b1d3a1be54482fd9caa294f08c62a7cde569f49a3c4500835260405f209060018060a01b03165f5260205260405f2090565b54604051908152f35b6001600160e01b03198116036102a957565b346102a95760203660031901126102a95760043561036e8161033f565b63ffffffff60e01b16637965db0b60e01b8114908115610397575b506040519015158152602090f35b636cdb3d1360e11b8114915081156103c9575b81156103b8575b505f610389565b6301ffc9a760e01b1490505f6103b1565b6303a24d0760e21b811491506103aa565b805180835260209291819084018484015e5f828201840152601f01601f1916010190565b90602061040f9281815201906103da565b90565b346102a95760203660031901126102a9576104386104316004356123b8565b5050612ac8565b6040515f60045461044881610542565b90600181169081156104f3575060011461049f575b508161048161049b9461047b61048f94600190602f60f81b81520190565b90612036565b03601f1981018352826105af565b604051918291826103fe565b0390f35b905060045f527f8a35acfbc15ff81a39ae7d344fd709f28e8600b4aa8c65c6b64bfe7fe36bd19b5f905b8282106104dd57505081016020018161045d565b60018160209254838588010152019101906104c9565b60ff19166020858101919091528215159092028401909101915082905061045d565b5f527f88be536d5240c274a3b1d3a1be54482fd9caa294f08c62a7cde569f49a3c450060205260405f2090565b90600182811c92168015610570575b602083101461055c57565b634e487b7160e01b5f52602260045260245ffd5b91607f1691610551565b634e487b7160e01b5f52604160045260245ffd5b61016081019081106001600160401b038211176105aa57604052565b61057a565b90601f801991011681019081106001600160401b038211176105aa57604052565b9060405191825f8254926105e384610542565b808452936001811690811561064e575060011461060a575b50610608925003836105af565b565b90505f9291925260205f20905f915b818310610632575050906020610608928201015f6105fb565b6020919350806001915483858901015201910190918492610619565b90506020925061060894915060ff191682840152151560051b8201015f6105fb565b6006111561067a57565b634e487b7160e01b5f52602160045260245ffd5b90600682101561067a5752565b9793956107096106fe610726986101409c989f9e9d9a958c60ff986106e26106f0936106d461ffff9a61016086526101608601906103da565b9084820360208601526103da565b9160408184039101526103da565b8c810360608e0152906103da565b9d60808b019061068e565b1660a08801521660c0860152151560e08501521515610100840152565b6101208201520152565b346102a95760203660031901126102a9576004355f52600160205260405f20610758816105d0565b61049b610767600184016105d0565b610773600285016105d0565b93610780600382016105d0565b600482015495600660058401549301549360405197889760ff8260281c169460ff8360201c169460ff8460181c169460ff61ffff8660081c169516938c61069b565b346102a95760603660031901126102a9576107db610293565b602435604435916107ea612b7e565b821561090f575f548210801590610907575b6108f857610812825f52600160205260405f2090565b916004830191825461082f61082b8260ff9060201c1690565b1590565b6108e95760ff602882901c16156108da577f9c5e31283fca33297d449cd4caee571121d99def2da30f6fb73efa506c7f01e393600561088b8361088461087d6108d59661ffff9060081c1690565b9160ff1690565b90876123d5565b960161089888825461206f565b90556108ad6108a561158d565b888886612d60565b546108bf600882901c61ffff1661087d565b9060405194859460018060a01b0316988561207c565b0390a3005b637701967760e01b5f5260045ffd5b63f77c119d60e01b5f5260045ffd5b632627b46560e11b5f5260045ffd5b5081156107fc565b631f2a200560e01b5f5260045ffd5b346102a95760203660031901126102a957602061093c6004356120a2565b604051908152f35b60405190610608610160836105af565b6001600160401b0381116105aa5760051b60200190565b92919061097781610954565b9361098560405195866105af565b602085838152019160051b81019283116102a957905b8282106109a757505050565b813581526020918201910161099b565b9080601f830112156102a95781602061040f9335910161096b565b6001600160401b0381116105aa57601f01601f191660200190565b9291926109f9826109d2565b91610a0760405193846105af565b8294818452818301116102a9578281602093845f960137010152565b9080601f830112156102a95781602061040f933591016109ed565b346102a95760a03660031901126102a957610a57610293565b610a5f6102ad565b906044356001600160401b0381116102a957610a7f9036906004016109b7565b6064356001600160401b0381116102a957610a9e9036906004016109b7565b90608435936001600160401b0385116102a957610ac2610ac8953690600401610a23565b936120c0565b005b346102a95760403660031901126102a957610ac8600435610ae96102ad565b90610afb610af6826120a2565b612d1a565b613083565b6024359060068210156102a957565b6084359060068210156102a957565b346102a95760403660031901126102a957610b37610293565b610b3f610b00565b905f906001925f54916006821015945b838110610b6157604051858152602090f35b805f526001602052600460405f2001548660ff82169061067a5780610b868692610670565b14610b95575b50600101610b4f565b60019195610bdd610bb886610bb2610be49561ffff9060081c1690565b8a6123d5565b6001600160a01b0386165f9081526002602052604090205b905f5260205260405f2090565b549061206f565b9490610b8c565b346102a95760403660031901126102a957600435610c076102ad565b336001600160a01b03821603610c2057610ac891613118565b63334bd91960e11b5f5260045ffd5b346102a95760203660031901126102a957600435610c4b612bed565b5f548110801590610c7a575b6108f8575f908152600160205260409020600401805465ff000000000019169055005b508015610c57565b90602080835192838152019201905f5b818110610c9f5750505090565b8251845260209384019390920191600101610c92565b90602061040f928181520190610c82565b346102a95760403660031901126102a9576004356001600160401b0381116102a957366023820112156102a957806004013590610d0282610954565b91610d1060405193846105af565b8083526024602084019160051b830101913683116102a957602401905b828210610d6d57836024356001600160401b0381116102a95761049b91610d5b610d619236906004016109b7565b90612170565b60405191829182610cb5565b60208091610d7a846102c3565b815201910190610d2d565b60403660031901126102a957610d99610293565b6024356001600160401b0381116102a957610db8903690600401610a23565b906001600160a01b037f000000000000000000000000000000000000000000000000000000000000000016308114908115610eb7575b50610ea857610dfb612c3c565b6040516352d1902d60e01b8152916020836004816001600160a01b0386165afa5f9381610e77575b50610e4457634c9c8ce360e01b5f526001600160a01b03821660045260245ffd5b905f80516020613ab18339815191528303610e6357610ac892506136ab565b632a87526960e21b5f52600483905260245ffd5b610e9a91945060203d602011610ea1575b610e9281836105af565b8101906131b8565b925f610e23565b503d610e88565b63703e46dd60e11b5f5260045ffd5b5f80516020613ab1833981519152546001600160a01b0316141590505f610dee565b5f9103126102a957565b346102a9575f3660031901126102a9577f00000000000000000000000000000000000000000000000000000000000000006001600160a01b03163003610ea85760206040515f80516020613ab18339815191528152f35b9181601f840112156102a9578235916001600160401b0383116102a957602083818601950101116102a957565b346102a95760203660031901126102a9576004356001600160401b0381116102a957610f97903690600401610f3a565b610f9f612bed565b6001600160401b0381116105aa57610fc181610fbc600454610542565b61221a565b5f601f8211600114610ffe578190610fee935f92610ff3575b50508160011b915f199060031b1c19161790565b600455005b013590505f80610fda565b60045f52601f198216927f8a35acfbc15ff81a39ae7d344fd709f28e8600b4aa8c65c6b64bfe7fe36bd19b915f5b85811061106257508360019510611049575b505050811b01600455005b01355f19600384901b60f8161c191690555f808061103e565b9092602060018192868601358155019401910161102c565b346102a95760203660031901126102a9576004355f526003602052602060405f2054604051908152f35b9181601f840112156102a9578235916001600160401b0383116102a9576020808501948460051b0101116102a957565b346102a95760603660031901126102a9576004356001600160401b0381116102a9576111049036906004016110a4565b6024356001600160401b0381116102a9576111239036906004016110a4565b906044356001600160401b0381116102a957611143903690600401610f3a565b6111508486939614612315565b5f945f915b838310611206578661117f8761117888611170368a8f61096b565b92369161096b565b90336131c7565b60055461119c906001600160a01b03165b6001600160a01b031690565b6001600160a01b0381161515806111fd575b6111b457005b803b156102a95760405163c97fa6b960e01b815233600482015260248101929092525f908290604490829084905af16111e957005b806111f75f610ac8936105af565b80610ed9565b508115156111ae565b90919561121487858a612353565b3596611221818888612353565b35801561090f578061124b336112368c610515565b9060018060a01b03165f5260205260405f2090565b541061132a5761125a896123b8565b9a9194905f548610801590611322575b6108f85785611317888a611308887fdb89580e8fbfff10a81fa43642924bb3f5c626ff3bafa1da2e208ef44ab3a5bc9760066112b060019e5f52600160205260405f2090565b016112bc83825461206f565b9055335f9081526002602052604090206112d7908b90610bd0565b6112e283825461206f565b90556112f68a5f52600360205260405f2090565b61130183825461206f565b905561206f565b9f604051958695339a87612383565b0390a3019190611155565b50851561126a565b631e9acf1760e31b5f5260045ffd5b346102a95760203660031901126102a957606061ffff61137661135d6004356123b8565b919390604051948552166020840152604083019061068e565bf35b346102a95760403660031901126102a957602060ff6113c760043561139b6102ad565b905f525f80516020613ad1833981519152845260405f209060018060a01b03165f5260205260405f2090565b54166040519015158152f35b346102a95760403660031901126102a9576113ec610293565b6024359060018060a01b03165f52600260205260405f20905f52602052602060405f2054604051908152f35b346102a95760403660031901126102a95760243560043560ff82168083036102a957611442612cab565b5f5482108015906114da575b6108f8576064106114cb575f818152600160205260409020600401805463ff0000001916601884901b63ff00000016178155805464ff00000000191664010000000017905560405160ff909216825233917f85a141c845c01eba65e9543fc3a4b557b5dbc7e2205d2c5d598307ce8416a99f9080602081016108d5565b63c8cc901360e01b5f5260045ffd5b50811561144e565b346102a9575f3660031901126102a95760206040515f8152f35b346102a95760403660031901126102a957611515610293565b6024358015158091036102a9576001600160a01b03821691821561157b5761154090611236336118be565b60ff1981541660ff83161790556040519081527f17307eab39ab6107e8899845ad3d59bd9653f200f220920489ca2b5937696c3160203392a3005b62ced3e160e81b5f525f60045260245ffd5b6040519061159c6020836105af565b5f8252565b346102a9575f3660031901126102a95761049b6040516115c26040826105af565b60058152640352e302e360dc1b60208201526040519182916020835260208301906103da565b346102a95760203660031901126102a957611601610293565b611609612bed565b600580546001600160a01b0319166001600160a01b0392909216919091179055005b346102a9575f3660031901126102a95760206040517f9f2df0fed2c77648de5860a4cc508cd0818c85b8b8a1ab4ceeef8d981c8956a68152f35b346102a95760403660031901126102a957610ac86004356116846102ad565b90611691610af6826120a2565b613118565b346102a9575f3660031901126102a9576005546040516001600160a01b039091168152602090f35b346102a95760603660031901126102a9576116d7610293565b6024356001600160401b0381116102a9576116f69036906004016110a4565b91906044356001600160401b0381116102a95783611719849236906004016110a4565b93611722612b7e565b61172d858414612315565b61173683612111565b926001600160a01b038516905f5b81811061176a57610ac8878761175b368c8a61096b565b9061176461158d565b926131f3565b611775818386612353565b3590611782818a88612353565b3591821561090f575f54811080159061186b575b6108f8576117ac815f52600160205260405f2090565b60048101908154926117c561082b8560ff9060201c1690565b6108e95760ff602885901c16156108da57600195611862611841878e60057f9c5e31283fca33297d449cd4caee571121d99def2da30f6fb73efa506c7f01e3976118238f9b61181c61087d8261ffff9060081c1690565b908a6123d5565b61182d8585612157565b520161183a86825461206f565b9055612157565b519454611855600882901c61ffff1661087d565b906040519485948561207c565b0390a301611744565b508015611796565b60a4359061ffff821682036102a957565b346102a95760603660031901126102a95760243560043561ffff821682036102a95760443560068110156102a95760209261093c926123d5565b6001600160a01b03165f9081527f88be536d5240c274a3b1d3a1be54482fd9caa294f08c62a7cde569f49a3c45016020526040902090565b346102a9575f3660031901126102a95760206040517f0ce23c3e399818cfee81a7ab0880f714e53d7672b08df0fa62f2843416e1ea098152f35b346102a9575f3660031901126102a95760205f54604051908152f35b346102a95760403660031901126102a957602060ff6113c761196c610293565b6112366119776102ad565b916118be565b602081526101606101406119e86119d26119bc6119a687518660208901526101808801906103da565b6020880151878203601f190160408901526103da565b6040870151868203601f190160608801526103da565b6060860151858203601f190160808701526103da565b936119fb608082015160a086019061068e565b60a081015161ffff1660c085015260c081015160ff1660e085015260e08101511515610100850152610100810151151561012085015261012081015182850152015191015290565b346102a95760203660031901126102a9576004355f610140604051611a678161058e565b6060815260606020820152606060408201526060808201528260808201528260a08201528260c08201528260e0820152826101008201528261012082015201525f548110801590611ae0575b6108f857611ad4611acf61049b925f52600160205260405f2090565b612416565b6040519182918261197d565b508015611ab3565b346102a95760a03660031901126102a957611b01610293565b611b096102ad565b60443590606435926084356001600160401b0381116102a957611b30903690600401610a23565b926001600160a01b0382163381141580611bcb575b611bb5576001600160a01b03841615611ba25715611b9057610ac894611b8860405192600184526020840152604083019160018352606084015260808301604052565b9290916134ed565b626a0d4560e21b5f525f60045260245ffd5b632bfa23e760e11b5f525f60045260245ffd5b63711bec9160e11b5f523360045260245260445ffd5b50611bd633846123f6565b15611b45565b346102a95760403660031901126102a957611bf5610293565b6024356001600160401b0381116102a957366023820112156102a957611c259036906024816004013591016109ed565b5f80516020613af18339815191525491906001600160401b03611c5760ff604086901c1615946001600160401b031690565b1680159081611d71575b6001149081611d67575b159081611d5e575b50611d4f57611cb69183611cad60016001600160401b03195f80516020613af18339815191525416175f80516020613af183398151915255565b611d1557612679565b611cbc57005b611ce660ff60401b195f80516020613af183398151915254165f80516020613af183398151915255565b604051600181527fc7f505b2f371ae2175ee4913f4499e1f2633a7b5936321eed1cdaeb6115181d290602090a1005b611d4a6801000000000000000060ff60401b195f80516020613af18339815191525416175f80516020613af183398151915255565b612679565b63f92ee8a960e01b5f5260045ffd5b9050155f611c73565b303b159150611c6b565b849150611c61565b346102a95760603660031901126102a9576024356004356044356001600160401b0381116102a957611daf903690600401610f3a565b90831561090f5783611dc43361123686610515565b541061132a57611dd3836123b8565b9390925f548310801590611f2e575b6108f8576006611dfa845f52600160205260405f2090565b01611e0688825461206f565b9055335f908152600260205260409020611e21908790610bd0565b611e2c88825461206f565b9055611e40865f52600360205260405f2090565b611e4b88825461206f565b9055611e5887873361320e565b600554611e6d906001600160a01b0316611190565b6001600160a01b038116611eb2575b50906108d5917fdb89580e8fbfff10a81fa43642924bb3f5c626ff3bafa1da2e208ef44ab3a5bc95604051958695339a87612383565b9190823b156102a95760405163c97fa6b960e01b8152336004820152602481018990527fdb89580e8fbfff10a81fa43642924bb3f5c626ff3bafa1da2e208ef44ab3a5bc966108d5949091905f908290604490829084905af1611f1a575b5095509091611e7c565b806111f75f611f28936105af565b5f611f10565b508215611de2565b346102a9575f3660031901126102a95760206040517f189ab7a9244df0848122154315af71fe140f3db0fe014031783b0946b8c9d2e38152f35b346102a95760c03660031901126102a9576004356001600160401b0381116102a957611fa0903690600401610f3a565b906024356001600160401b0381116102a957611fc0903690600401610f3a565b9190926044356001600160401b0381116102a957611fe2903690600401610f3a565b939094606435946001600160401b0386116102a95761049b9661200c612026973690600401610f3a565b949093612017610b0f565b96612020611873565b986127e6565b6040519081529081906020820190565b805191908290602001825e015f815290565b634e487b7160e01b5f52601160045260245ffd5b603001908160301161206a57565b612048565b9190820180921161206a57565b61ffff61060894606093979694608084019884526020840152166040820152019061068e565b5f525f80516020613ad1833981519152602052600160405f20015490565b939291906001600160a01b03851633811415806120f9575b611bb5576001600160a01b03821615611ba25715611b9057610608946134ed565b5060ff61210933611236896118be565b5416156120d8565b9061211b82610954565b61212860405191826105af565b8281528092612139601f1991610954565b0190602036910137565b634e487b7160e01b5f52603260045260245ffd5b805182101561216b5760209160051b010190565b612143565b9190918051835180820361220557505061218a8151612111565b905f5b81518110156121fe57806121ec60019260051b602080828701015191890101515f527f88be536d5240c274a3b1d3a1be54482fd9caa294f08c62a7cde569f49a3c450060205260405f209060018060a01b03165f5260205260405f2090565b546121f78286612157565b520161218d565b5090925050565b635b05999160e01b5f5260045260245260445ffd5b601f8111612226575050565b60045f5260205f20906020601f840160051c83019310612260575b601f0160051c01905b818110612255575050565b5f815560010161224a565b9091508190612241565b601f8111612276575050565b5f80516020613b118339815191525f5260205f20906020601f840160051c830193106122bc575b601f0160051c01905b8181106122b1575050565b5f81556001016122a6565b909150819061229d565b601f82116122d357505050565b5f5260205f20906020601f840160051c8301931061230b575b601f0160051c01905b818110612300575050565b5f81556001016122f5565b90915081906122ec565b1561231c57565b60405162461bcd60e51b815260206004820152600f60248201526e098cadccee8d040dad2e6dac2e8c6d608b1b6044820152606490fd5b919081101561216b5760051b0190565b908060209392818452848401375f828201840152601f01601f1916010190565b919361ffff60a09461040f98966123ab9486526020860152166040840152606083019061068e565b8160808201520191612363565b8060181c9160ff61ffff8360081c169216600681101561067a5790565b9091600681101561067a5760ff62ffff0091169260081b169060181b171790565b60ff91611236612405926118be565b541690565b600682101561067a5752565b906006612421610944565b9261242b816105d0565b8452612439600182016105d0565b602085015261244a600282016105d0565b604085015261245b600382016105d0565b60608501526124c36124b960048301546124816124788260ff1690565b6080890161240a565b61ffff600882901c1660a088015260ff601882901c1660c08801526124b0602082901c60ff16151560e0890152565b60281c60ff1690565b1515610100860152565b60058101546101208501520154610140830152565b9081516001600160401b0381116105aa576124ff816124f8600454610542565b60046122c6565b602092601f821160011461253e5761252e929382915f926125335750508160011b915f199060031b1c19161790565b600455565b015190505f80610fda565b60045f52601f198216937f8a35acfbc15ff81a39ae7d344fd709f28e8600b4aa8c65c6b64bfe7fe36bd19b915f5b8681106125a2575083600195961061258a575b505050811b01600455565b01515f1960f88460031b161c191690555f808061257f565b9192602060018192868501518155019401920161256c565b91909182516001600160401b0381116105aa576125e1816125db8454610542565b846122c6565b6020601f82116001146126145781906126109394955f926125335750508160011b915f199060031b1c19161790565b9055565b601f19821690612627845f5260205f2090565b915f5b81811061266157509583600195969710612649575b505050811b019055565b01515f1960f88460031b161c191690555f808061263f565b9192602060018192868b01518155019401920161262a565b919061268361374d565b61268b61374d565b8051926001600160401b0384116105aa576126bc846126b75f80516020613b1183398151915254610542565b61226a565b602093601f811160011461274757906126f28261272d9361273396975f9161273c575b508160011b915f199060031b1c19161790565b5f80516020613b11833981519152555b61270a61374d565b61271381612da4565b5061271d81612e40565b5061272781612f01565b50612fc2565b506124d8565b61060860015f55565b90508501515f6126df565b5f80516020613b118339815191525f52601f1981167ff429cb5e2ec84cbb765e76b31964a56ccde03e7a6122d6cc4afb19edc55edeed905f5b8181106127ce57509160019161273396978261272d9695106127b6575b5050811b015f80516020613b1183398151915255612702565b8601515f1960f88460031b161c191690555f8061279d565b85880151835560209788019760019093019201612780565b9398959196909794986127f7612b7e565b61ffff87166107df8110908115612904575b506128f5575f54998a9861281c8a612910565b5f55612826610944565b95612832368d8a6109ed565b8752369061283f926109ed565b6020860152369061284f926109ed565b6040840152369061285f926109ed565b6060820152612871836080830161240a565b61ffff841660a08201525f60c0820181905260e0820152600161010082015261012081015f905261014081015f90526128b2855f52600160205260405f2090565b906128bc91612936565b60405192839233966128ce9385612a52565b037f6508dd2d082c74d5afb8007cebd245e42a96aa8fe84437690337254b7fb8f4f691a390565b6301be9e4560e61b5f5260045ffd5b6108349150115f612809565b5f19811461206a5760010190565b90600681101561067a5760ff80198354169116179055565b906101406006916129488151856125ba565b6129596020820151600186016125ba565b61296a6040820151600286016125ba565b61297b6060820151600386016125ba565b612a4060048501612999608084015161299381610670565b8261291e565b6129c36129ab60a085015161ffff1690565b825462ffff00191660089190911b62ffff0016178255565b6129ee6129d460c085015160ff1690565b825463ff000000191660189190911b63ff00000016178255565b612a1a6129fe60e0850151151590565b825464ff00000000191690151560201b64ff0000000016178255565b6101008301511515815465ff0000000000191690151560281b65ff000000000016179055565b61012081015160058501550151910155565b929493612a7b612a7061ffff93604095606088526060880191612363565b96602086019061068e565b16910152565b90612a8b826109d2565b612a9860405191826105af565b8281528092612139601f19916109d2565b5f1981019190821161206a57565b90815181101561216b570160200190565b908115612b5d575f82805b612b3e575080612ae38492612a81565b915b612aee57509150565b612afa612b3791612aa9565b93612b23612b13612b0d600a840661205c565b60ff1690565b60f81b6001600160f81b03191690565b5f1a612b2f8685612ab7565b53600a900490565b9283612ae5565b9290612b4c612b5491612910565b93600a900490565b80939193612ad3565b9050604051612b6d6040826105af565b60018152600360fc1b602082015290565b335f9081527f549fe2656c81d2947b3b913f0a53b9ea86c71e049f3a1b8aa23c09a8a05cb8d4602052604090205460ff1615612bb657565b63e2517d3f60e01b5f52336004527f9f2df0fed2c77648de5860a4cc508cd0818c85b8b8a1ab4ceeef8d981c8956a660245260445ffd5b335f9081527fb7db2dd08fcb62d0c9e08c51941cae53c267786a0b75803fb7960902fc8ef97d602052604090205460ff1615612c2557565b63e2517d3f60e01b5f52336004525f60245260445ffd5b335f9081527fab71e3f32666744d246edff3f96e4bdafee2e9867098cdd118a979a7464786a8602052604090205460ff1615612c7457565b63e2517d3f60e01b5f52336004527f189ab7a9244df0848122154315af71fe140f3db0fe014031783b0946b8c9d2e360245260445ffd5b335f9081527fd56b761303e15a4cbea84f37eba80a5289f49fda0b4884e30ac1d73eb9b8b143602052604090205460ff1615612ce357565b63e2517d3f60e01b5f52336004527f0ce23c3e399818cfee81a7ab0880f714e53d7672b08df0fa62f2843416e1ea0960245260445ffd5b5f8181525f80516020613ad18339815191526020908152604080832033845290915290205460ff1615612d4a5750565b63e2517d3f60e01b5f523360045260245260445ffd5b919291906001600160a01b03821615611ba25761060893612d9e60405192600184526020840152604083019160018352606084015260808301604052565b91613259565b6001600160a01b0381165f9081527fb7db2dd08fcb62d0c9e08c51941cae53c267786a0b75803fb7960902fc8ef97d602052604090205460ff16612e3b576001600160a01b03165f8181527fb7db2dd08fcb62d0c9e08c51941cae53c267786a0b75803fb7960902fc8ef97d60205260408120805460ff191660011790553391905f80516020613a918339815191528180a4600190565b505f90565b6001600160a01b0381165f9081527f549fe2656c81d2947b3b913f0a53b9ea86c71e049f3a1b8aa23c09a8a05cb8d4602052604090205460ff16612e3b576001600160a01b0381165f9081527f549fe2656c81d2947b3b913f0a53b9ea86c71e049f3a1b8aa23c09a8a05cb8d460205260409020805460ff1916600117905533906001600160a01b03167f9f2df0fed2c77648de5860a4cc508cd0818c85b8b8a1ab4ceeef8d981c8956a65f80516020613a918339815191525f80a4600190565b6001600160a01b0381165f9081527fab71e3f32666744d246edff3f96e4bdafee2e9867098cdd118a979a7464786a8602052604090205460ff16612e3b576001600160a01b0381165f9081527fab71e3f32666744d246edff3f96e4bdafee2e9867098cdd118a979a7464786a860205260409020805460ff1916600117905533906001600160a01b03167f189ab7a9244df0848122154315af71fe140f3db0fe014031783b0946b8c9d2e35f80516020613a918339815191525f80a4600190565b6001600160a01b0381165f9081527fd56b761303e15a4cbea84f37eba80a5289f49fda0b4884e30ac1d73eb9b8b143602052604090205460ff16612e3b576001600160a01b0381165f9081527fd56b761303e15a4cbea84f37eba80a5289f49fda0b4884e30ac1d73eb9b8b14360205260409020805460ff1916600117905533906001600160a01b03167f0ce23c3e399818cfee81a7ab0880f714e53d7672b08df0fa62f2843416e1ea095f80516020613a918339815191525f80a4600190565b5f8181525f80516020613ad1833981519152602090815260408083206001600160a01b038616845290915290205460ff16613112575f8181525f80516020613ad1833981519152602090815260408083206001600160a01b03861684529091529020805460ff1916600117905533916001600160a01b0316905f80516020613a918339815191525f80a4600190565b50505f90565b5f8181525f80516020613ad1833981519152602090815260408083206001600160a01b038616845290915290205460ff1615613112575f8181525f80516020613ad1833981519152602090815260408083206001600160a01b03861684529091529020805460ff1916905533916001600160a01b0316907ff6391f5c32d9c69d2a47ea670b442974b53935d1edc7fd64eb21e047a839171b5f80a4600190565b908160209103126102a9575190565b90916001600160a01b03821615611b905761060892604051926131eb6020856105af565b5f84526133ad565b9291906001600160a01b03841615611ba25761060893613259565b906001600160a01b03821615611b90576106089261324960405192600184526020840152604083019160018352606084015260808301604052565b90604051926131eb6020856105af565b9392919080518251908181036133985750506001600160a01b03851693841515935f5b83518110156132cc5780868960019360051b602080828a010151918a010151926132aa575b5050500161327c565b6132c2916112366132ba92610515565b91825461206f565b90555f89816132a1565b509390959460018351145f1461335d576020838101518582015160408051928352928201525f9133917fc3d58168c5ae7397731d063d5bbf3d657854427343f4c083240f7aacaa2d0f629190a45b613325575b50505050565b805160010361334d579060208061334495930151910151915f33613963565b5f80808061331f565b613358935f33613834565b613344565b5f6040517f4a39dc06d4c0dbc64b70af90fd698a233a518aa5d07e595d983b8c0526c8f7fb339180613390898983613778565b0390a461331a565b635b05999160e01b5f5260045260245260445ffd5b90925082518251908181036133985750506001600160a01b038116801515949093905f5b8251811015613464578060051b8760208083870101519288010151906133fc575b50506001016133d1565b6134098661123684610515565b5481811061342d57866112366001959493613425930393610515565b55905f6133f2565b6040516303dee4c560e01b81526001600160a01b038816600482015260248101919091526044810182905260648101839052608490fd5b5094505f93929150600181511484146134ba5760209081015191810151604080519384529183015233917fc3d58168c5ae7397731d063d5bbf3d657854427343f4c083240f7aacaa2d0f6291819081015b0390a4565b60405133927f4a39dc06d4c0dbc64b70af90fd698a233a518aa5d07e595d983b8c0526c8f7fb9282916134b59183613778565b94939290919384518251908181036133985750506001600160a01b038681169586151595918516801515939192905f5b84518110156135de578060051b90898988602080868b010151958c0101519261356d575b93600194613553575b5050500161351d565b613563916112366132ba92610515565b90555f898161354a565b5050909161357e8d61123683610515565b548281106135a7578291898f61359e600197968f95039161123685610515565b55909450613541565b6040516303dee4c560e01b81526001600160a01b038f16600482015260248101919091526044810183905260648101829052608490fd5b5091989593929790965060018851145f146136715760208881015186820151604080519283529282015233917fc3d58168c5ae7397731d063d5bbf3d657854427343f4c083240f7aacaa2d0f6291a45b61363a575b5050505050565b8451600103613660576020806136569601519201519233613963565b5f80808080613633565b61366c94919233613834565b613656565b6040517f4a39dc06d4c0dbc64b70af90fd698a233a518aa5d07e595d983b8c0526c8f7fb3391806136a3898d83613778565b0390a461362e565b90813b1561372c575f80516020613ab183398151915280546001600160a01b0319166001600160a01b0384169081179091557fbc7cd75a20ee27fd9adebab32041f755214dbc6bffa90cc0225b39da2e5c2d3b5f80a28051156137145761371191613a01565b50565b50503461371d57565b63b398979f60e01b5f5260045ffd5b50634c9c8ce360e01b5f9081526001600160a01b0391909116600452602490fd5b60ff5f80516020613af18339815191525460401c161561376957565b631afcd79f60e31b5f5260045ffd5b909161378f61040f93604084526040840190610c82565b916020818403910152610c82565b908160209103126102a9575161040f8161033f565b6001600160a01b0391821681529116602082015260a06040820181905261040f94919391926137f792916137e99190860190610c82565b908482036060860152610c82565b9160808184039101526103da565b3d1561382f573d90613816826109d2565b9161382460405193846105af565b82523d5f602084013e565b606090565b9091949293853b613848575b505050505050565b60209361386a91604051968795869563bc197c8160e01b8752600487016137b2565b03815f6001600160a01b0387165af15f91816138f9575b506138bb575061388f613805565b80519190826138b457632bfa23e760e11b5f526001600160a01b03821660045260245ffd5b6020915001fd5b6001600160e01b0319166343e6837f60e01b016138de57505f8080808080613840565b632bfa23e760e11b5f526001600160a01b031660045260245ffd5b61391c91925060203d602011613923575b61391481836105af565b81019061379d565b905f613881565b503d61390a565b6001600160a01b039182168152911660208201526040810191909152606081019190915260a06080820181905261040f929101906103da565b9091949293853b61397657505050505050565b60209361399891604051968795869563f23a6e6160e01b87526004870161392a565b03815f6001600160a01b0387165af15f91816139e0575b506139bd575061388f613805565b6001600160e01b031916630dc5919f60e01b016138de57505f8080808080613840565b6139fa91925060203d6020116139235761391481836105af565b905f6139af565b905f8091602081519101845af48080613a64575b15613a2457505061040f613a77565b15613a4457639996b31560e01b5f526001600160a01b031660045260245ffd5b3d15613a55576040513d5f823e3d90fd5b63d6bda27560e01b5f5260045ffd5b503d151580613a155750813b1515613a15565b604051903d82523d5f602084013e60203d83010160405256fe2f8788117e7eff1d82e926ec794901d17c78024a50270940304540a733656f0d360894a13ba1a3210667c828492db98dca3e2076cc3735a920a3ca505d382bbc02dd7bc7dec4dceedda775e58dd541e08a116c6c53815c0bd028192f7b626800f0c57e16840df040f15088dc2f81fe391c3923bec73e23a9662efc9c229c6a0088be536d5240c274a3b1d3a1be54482fd9caa294f08c62a7cde569f49a3c4502a26469706673582212201d541cae09909319a1ae9a9d67660e759b4e3eb6fb4463bab7378a2199ca580a64736f6c634300081a0033","linkReferences":{}},"methodIdentifiers":{"DEFAULT_ADMIN_ROLE()":"a217fddf","MINTER_ROLE()":"d5391393","UPGRADER_ROLE()":"f72c0d8b","UPGRADE_INTERFACE_VERSION()":"ad3cb1cc","VERIFIER_ROLE()":"e7705db6","balanceOf(address,uint256)":"00fdd58e","balanceOfBatch(address[],uint256[])":"4e1273f4","deactivateProject(uint256)":"436e6958","decodeTokenId(uint256)":"7efd9112","encodeTokenId(uint256,uint16,uint8)":"de435bad","getProject(uint256)":"f0f3f2c8","getRoleAdmin(bytes32)":"248a9ca3","getUserCategoryRetirements(address,uint8)":"2f323670","getUserRetirements(address,uint256)":"963663bb","grantRole(bytes32,address)":"2f2ff15d","guardianNFT()":"d683f151","hasRole(bytes32,address)":"91d14854","initialize(address,string)":"f399e22e","isApprovedForAll(address,address)":"e985e9c5","mint(address,uint256,uint256)":"156e29f6","mintBatch(address,uint256[],uint256[])":"d81d0a15","nextProjectId()":"e935b7b1","projects(uint256)":"107046bd","proxiableUUID()":"52d1902d","registerProject(string,string,string,string,uint8,uint16)":"f973b850","renounceRole(bytes32,address)":"36568abe","retire(uint256,uint256,string)":"f4788ec1","retireBatch(uint256[],uint256[],string)":"74d1eb1f","revokeRole(bytes32,address)":"d547741f","safeBatchTransferFrom(address,address,uint256[],uint256[],bytes)":"2eb2c2d6","safeTransferFrom(address,address,uint256,uint256,bytes)":"f242432a","setApprovalForAll(address,bool)":"a22cb465","setBaseURI(string)":"55f804b3","setGuardianNFT(address)":"cfe0ce28","supportsInterface(bytes4)":"01ffc9a7","tokenRetirements(uint256)":"69fbce57","upgradeToAndCall(address,bytes)":"4f1ef286","uri(uint256)":"0e89341c","userRetirements(address,uint256)":"e3c30ea7","verifyProject(uint256,uint8)":"a0ef91b2"},"storageLayout":{"storage":[{"astId":59761,"contract":"src/core/CarbonCreditToken.sol:CarbonCreditToken","label":"nextProjectId","offset":0,"slot":"0","type":"t_uint256"},{"astId":59767,"contract":"src/core/CarbonCreditToken.sol:CarbonCreditToken","label":"projects","offset":0,"slot":"1","type":"t_mapping(t_uint256,t_struct(Project)59758_storage)"},{"astId":59774,"contract":"src/core/CarbonCreditToken.sol:CarbonCreditToken","label":"userRetirements","offset":0,"slot":"2","type":"t_mapping(t_address,t_mapping(t_uint256,t_uint256))"},{"astId":59779,"contract":"src/core/CarbonCreditToken.sol:CarbonCreditToken","label":"tokenRetirements","offset":0,"slot":"3","type":"t_mapping(t_uint256,t_uint256)"},{"astId":59782,"contract":"src/core/CarbonCreditToken.sol:CarbonCreditToken","label":"_baseTokenURI","offset":0,"slot":"4","type":"t_string_storage"},{"astId":59786,"contract":"src/core/CarbonCreditToken.sol:CarbonCreditToken","label":"guardianNFT","offset":0,"slot":"5","type":"t_contract(GuardianNFT)62188"}],"types":{"t_address":{"encoding":"inplace","label":"address","numberOfBytes":"20"},"t_bool":{"encoding":"inplace","label":"bool","numberOfBytes":"1"},"t_contract(GuardianNFT)62188":{"encoding":"inplace","label":"contract GuardianNFT","numberOfBytes":"20"},"t_enum(Category)59734":{"encoding":"inplace","label":"enum CarbonCreditToken.Category","numberOfBytes":"1"},"t_mapping(t_address,t_mapping(t_uint256,t_uint256))":{"encoding":"mapping","key":"t_address","label":"mapping(address => mapping(uint256 => uint256))","numberOfBytes":"32","value":"t_mapping(t_uint256,t_uint256)"},"t_mapping(t_uint256,t_struct(Project)59758_storage)":{"encoding":"mapping","key":"t_uint256","label":"mapping(uint256 => struct CarbonCreditToken.Project)","numberOfBytes":"32","value":"t_struct(Project)59758_storage"},"t_mapping(t_uint256,t_uint256)":{"encoding":"mapping","key":"t_uint256","label":"mapping(uint256 => uint256)","numberOfBytes":"32","value":"t_uint256"},"t_string_storage":{"encoding":"bytes","label":"string","numberOfBytes":"32"},"t_struct(Project)59758_storage":{"encoding":"inplace","label":"struct CarbonCreditToken.Project","numberOfBytes":"224","members":[{"astId":59736,"contract":"src/core/CarbonCreditToken.sol:CarbonCreditToken","label":"name","offset":0,"slot":"0","type":"t_string_storage"},{"astId":59738,"contract":"src/core/CarbonCreditToken.sol:CarbonCreditToken","label":"methodology","offset":0,"slot":"1","type":"t_string_storage"},{"astId":59740,"contract":"src/core/CarbonCreditToken.sol:CarbonCreditToken","label":"verifier","offset":0,"slot":"2","type":"t_string_storage"},{"astId":59742,"contract":"src/core/CarbonCreditToken.sol:CarbonCreditToken","label":"location","offset":0,"slot":"3","type":"t_string_storage"},{"astId":59745,"contract":"src/core/CarbonCreditToken.sol:CarbonCreditToken","label":"category","offset":0,"slot":"4","type":"t_enum(Category)59734"},{"astId":59747,"contract":"src/core/CarbonCreditToken.sol:CarbonCreditToken","label":"vintage","offset":1,"slot":"4","type":"t_uint16"},{"astId":59749,"contract":"src/core/CarbonCreditToken.sol:CarbonCreditToken","label":"qualityScore","offset":3,"slot":"4","type":"t_uint8"},{"astId":59751,"contract":"src/core/CarbonCreditToken.sol:CarbonCreditToken","label":"verified","offset":4,"slot":"4","type":"t_bool"},{"astId":59753,"contract":"src/core/CarbonCreditToken.sol:CarbonCreditToken","label":"active","offset":5,"slot":"4","type":"t_bool"},{"astId":59755,"contract":"src/core/CarbonCreditToken.sol:CarbonCreditToken","label":"totalMinted","offset":0,"slot":"5","type":"t_uint256"},{"astId":59757,"contract":"src/core/CarbonCreditToken.sol:CarbonCreditToken","label":"totalRetired","offset":0,"slot":"6","type":"t_uint256"}]},"t_uint16":{"encoding":"inplace","label":"uint16","numberOfBytes":"2"},"t_uint256":{"encoding":"inplace","label":"uint256","numberOfBytes":"32"},"t_uint8":{"encoding":"inplace","label":"uint8","numberOfBytes":"1"}}},"id":80}