{"abi":[{"type":"constructor","inputs":[],"stateMutability":"nonpayable"},{"type":"function","name":"COMMON_DISCOUNT","inputs":[],"outputs":[{"name":"","type":"uint16","internalType":"uint16"}],"stateMutability":"view"},{"type":"function","name":"COMMON_FEE_REDUCTION","inputs":[],"outputs":[{"name":"","type":"uint16","internalType":"uint16"}],"stateMutability":"view"},{"type":"function","name":"COMMON_THRESHOLD","inputs":[],"outputs":[{"name":"","type":"uint256","internalType":"uint256"}],"stateMutability":"view"},{"type":"function","name":"COMMON_UNLOCK_FEE","inputs":[],"outputs":[{"name":"","type":"uint256","internalType":"uint256"}],"stateMutability":"view"},{"type":"function","name":"EPIC_DISCOUNT","inputs":[],"outputs":[{"name":"","type":"uint16","internalType":"uint16"}],"stateMutability":"view"},{"type":"function","name":"EPIC_FEE_REDUCTION","inputs":[],"outputs":[{"name":"","type":"uint16","internalType":"uint16"}],"stateMutability":"view"},{"type":"function","name":"EPIC_THRESHOLD","inputs":[],"outputs":[{"name":"","type":"uint256","internalType":"uint256"}],"stateMutability":"view"},{"type":"function","name":"EPIC_UNLOCK_FEE","inputs":[],"outputs":[{"name":"","type":"uint256","internalType":"uint256"}],"stateMutability":"view"},{"type":"function","name":"LEGENDARY_DISCOUNT","inputs":[],"outputs":[{"name":"","type":"uint16","internalType":"uint16"}],"stateMutability":"view"},{"type":"function","name":"LEGENDARY_FEE_REDUCTION","inputs":[],"outputs":[{"name":"","type":"uint16","internalType":"uint16"}],"stateMutability":"view"},{"type":"function","name":"LEGENDARY_THRESHOLD","inputs":[],"outputs":[{"name":"","type":"uint256","internalType":"uint256"}],"stateMutability":"view"},{"type":"function","name":"LEGENDARY_UNLOCK_FEE","inputs":[],"outputs":[{"name":"","type":"uint256","internalType":"uint256"}],"stateMutability":"view"},{"type":"function","name":"RARE_DISCOUNT","inputs":[],"outputs":[{"name":"","type":"uint16","internalType":"uint16"}],"stateMutability":"view"},{"type":"function","name":"RARE_FEE_REDUCTION","inputs":[],"outputs":[{"name":"","type":"uint16","internalType":"uint16"}],"stateMutability":"view"},{"type":"function","name":"RARE_THRESHOLD","inputs":[],"outputs":[{"name":"","type":"uint256","internalType":"uint256"}],"stateMutability":"view"},{"type":"function","name":"RARE_UNLOCK_FEE","inputs":[],"outputs":[{"name":"","type":"uint256","internalType":"uint256"}],"stateMutability":"view"},{"type":"function","name":"UNCOMMON_DISCOUNT","inputs":[],"outputs":[{"name":"","type":"uint16","internalType":"uint16"}],"stateMutability":"view"},{"type":"function","name":"UNCOMMON_FEE_REDUCTION","inputs":[],"outputs":[{"name":"","type":"uint16","internalType":"uint16"}],"stateMutability":"view"},{"type":"function","name":"UNCOMMON_THRESHOLD","inputs":[],"outputs":[{"name":"","type":"uint256","internalType":"uint256"}],"stateMutability":"view"},{"type":"function","name":"UNCOMMON_UNLOCK_FEE","inputs":[],"outputs":[{"name":"","type":"uint256","internalType":"uint256"}],"stateMutability":"view"},{"type":"function","name":"UPGRADE_INTERFACE_VERSION","inputs":[],"outputs":[{"name":"","type":"string","internalType":"string"}],"stateMutability":"view"},{"type":"function","name":"approve","inputs":[{"name":"to","type":"address","internalType":"address"},{"name":"tokenId","type":"uint256","internalType":"uint256"}],"outputs":[],"stateMutability":"nonpayable"},{"type":"function","name":"authorizedUpdaters","inputs":[{"name":"","type":"address","internalType":"address"}],"outputs":[{"name":"","type":"bool","internalType":"bool"}],"stateMutability":"view"},{"type":"function","name":"balanceOf","inputs":[{"name":"owner","type":"address","internalType":"address"}],"outputs":[{"name":"","type":"uint256","internalType":"uint256"}],"stateMutability":"view"},{"type":"function","name":"carbonToken","inputs":[],"outputs":[{"name":"","type":"address","internalType":"contract CarbonCreditToken"}],"stateMutability":"view"},{"type":"function","name":"getApproved","inputs":[{"name":"tokenId","type":"uint256","internalType":"uint256"}],"outputs":[{"name":"","type":"address","internalType":"address"}],"stateMutability":"view"},{"type":"function","name":"getDiscount","inputs":[{"name":"user","type":"address","internalType":"address"}],"outputs":[{"name":"discount","type":"uint16","internalType":"uint16"}],"stateMutability":"view"},{"type":"function","name":"getFeeReduction","inputs":[{"name":"user","type":"address","internalType":"address"}],"outputs":[{"name":"reduction","type":"uint16","internalType":"uint16"}],"stateMutability":"view"},{"type":"function","name":"getGuardian","inputs":[{"name":"tokenId","type":"uint256","internalType":"uint256"}],"outputs":[{"name":"","type":"tuple","internalType":"struct GuardianNFT.Guardian","components":[{"name":"totalRetired","type":"uint256","internalType":"uint256"},{"name":"tier","type":"uint8","internalType":"enum GuardianNFT.Tier"},{"name":"path","type":"uint8","internalType":"enum GuardianNFT.GuardianPath"},{"name":"createdAt","type":"uint256","internalType":"uint256"},{"name":"lastUpdated","type":"uint256","internalType":"uint256"},{"name":"nickname","type":"string","internalType":"string"},{"name":"isTransferable","type":"bool","internalType":"bool"}]}],"stateMutability":"view"},{"type":"function","name":"getPath","inputs":[{"name":"user","type":"address","internalType":"address"}],"outputs":[{"name":"path","type":"uint8","internalType":"enum GuardianNFT.GuardianPath"}],"stateMutability":"view"},{"type":"function","name":"getTierProgress","inputs":[{"name":"user","type":"address","internalType":"address"}],"outputs":[{"name":"currentTier","type":"uint8","internalType":"enum GuardianNFT.Tier"},{"name":"nextTier","type":"uint8","internalType":"enum GuardianNFT.Tier"},{"name":"progress","type":"uint256","internalType":"uint256"},{"name":"amountToNext","type":"uint256","internalType":"uint256"}],"stateMutability":"view"},{"type":"function","name":"getTierThreshold","inputs":[{"name":"tier","type":"uint8","internalType":"enum GuardianNFT.Tier"}],"outputs":[{"name":"threshold","type":"uint256","internalType":"uint256"}],"stateMutability":"pure"},{"type":"function","name":"getUnlockFee","inputs":[{"name":"tokenId","type":"uint256","internalType":"uint256"}],"outputs":[{"name":"fee","type":"uint256","internalType":"uint256"}],"stateMutability":"view"},{"type":"function","name":"guardianOf","inputs":[{"name":"","type":"address","internalType":"address"}],"outputs":[{"name":"","type":"uint256","internalType":"uint256"}],"stateMutability":"view"},{"type":"function","name":"guardians","inputs":[{"name":"","type":"uint256","internalType":"uint256"}],"outputs":[{"name":"totalRetired","type":"uint256","internalType":"uint256"},{"name":"tier","type":"uint8","internalType":"enum GuardianNFT.Tier"},{"name":"path","type":"uint8","internalType":"enum GuardianNFT.GuardianPath"},{"name":"createdAt","type":"uint256","internalType":"uint256"},{"name":"lastUpdated","type":"uint256","internalType":"uint256"},{"name":"nickname","type":"string","internalType":"string"},{"name":"isTransferable","type":"bool","internalType":"bool"}],"stateMutability":"view"},{"type":"function","name":"initialize","inputs":[{"name":"_carbonToken","type":"address","internalType":"address"},{"name":"_owner","type":"address","internalType":"address"},{"name":"baseURI","type":"string","internalType":"string"}],"outputs":[],"stateMutability":"nonpayable"},{"type":"function","name":"isApprovedForAll","inputs":[{"name":"owner","type":"address","internalType":"address"},{"name":"operator","type":"address","internalType":"address"}],"outputs":[{"name":"","type":"bool","internalType":"bool"}],"stateMutability":"view"},{"type":"function","name":"isTransferable","inputs":[{"name":"tokenId","type":"uint256","internalType":"uint256"}],"outputs":[{"name":"","type":"bool","internalType":"bool"}],"stateMutability":"view"},{"type":"function","name":"mint","inputs":[{"name":"path","type":"uint8","internalType":"enum GuardianNFT.GuardianPath"}],"outputs":[{"name":"tokenId","type":"uint256","internalType":"uint256"}],"stateMutability":"nonpayable"},{"type":"function","name":"mintFor","inputs":[{"name":"user","type":"address","internalType":"address"},{"name":"initialRetirement","type":"uint256","internalType":"uint256"},{"name":"path","type":"uint8","internalType":"enum GuardianNFT.GuardianPath"}],"outputs":[{"name":"tokenId","type":"uint256","internalType":"uint256"}],"stateMutability":"nonpayable"},{"type":"function","name":"name","inputs":[],"outputs":[{"name":"","type":"string","internalType":"string"}],"stateMutability":"view"},{"type":"function","name":"nextTokenId","inputs":[],"outputs":[{"name":"","type":"uint256","internalType":"uint256"}],"stateMutability":"view"},{"type":"function","name":"owner","inputs":[],"outputs":[{"name":"","type":"address","internalType":"address"}],"stateMutability":"view"},{"type":"function","name":"ownerOf","inputs":[{"name":"tokenId","type":"uint256","internalType":"uint256"}],"outputs":[{"name":"","type":"address","internalType":"address"}],"stateMutability":"view"},{"type":"function","name":"proxiableUUID","inputs":[],"outputs":[{"name":"","type":"bytes32","internalType":"bytes32"}],"stateMutability":"view"},{"type":"function","name":"recordRetirement","inputs":[{"name":"user","type":"address","internalType":"address"},{"name":"amount","type":"uint256","internalType":"uint256"}],"outputs":[],"stateMutability":"nonpayable"},{"type":"function","name":"renounceOwnership","inputs":[],"outputs":[],"stateMutability":"nonpayable"},{"type":"function","name":"safeTransferFrom","inputs":[{"name":"from","type":"address","internalType":"address"},{"name":"to","type":"address","internalType":"address"},{"name":"tokenId","type":"uint256","internalType":"uint256"}],"outputs":[],"stateMutability":"nonpayable"},{"type":"function","name":"safeTransferFrom","inputs":[{"name":"from","type":"address","internalType":"address"},{"name":"to","type":"address","internalType":"address"},{"name":"tokenId","type":"uint256","internalType":"uint256"},{"name":"data","type":"bytes","internalType":"bytes"}],"outputs":[],"stateMutability":"nonpayable"},{"type":"function","name":"setApprovalForAll","inputs":[{"name":"operator","type":"address","internalType":"address"},{"name":"approved","type":"bool","internalType":"bool"}],"outputs":[],"stateMutability":"nonpayable"},{"type":"function","name":"setAuthorizedUpdater","inputs":[{"name":"updater","type":"address","internalType":"address"},{"name":"authorized","type":"bool","internalType":"bool"}],"outputs":[],"stateMutability":"nonpayable"},{"type":"function","name":"setBaseURI","inputs":[{"name":"baseURI","type":"string","internalType":"string"}],"outputs":[],"stateMutability":"nonpayable"},{"type":"function","name":"setNickname","inputs":[{"name":"nickname","type":"string","internalType":"string"}],"outputs":[],"stateMutability":"nonpayable"},{"type":"function","name":"supportsInterface","inputs":[{"name":"interfaceId","type":"bytes4","internalType":"bytes4"}],"outputs":[{"name":"","type":"bool","internalType":"bool"}],"stateMutability":"view"},{"type":"function","name":"symbol","inputs":[],"outputs":[{"name":"","type":"string","internalType":"string"}],"stateMutability":"view"},{"type":"function","name":"tokenByIndex","inputs":[{"name":"index","type":"uint256","internalType":"uint256"}],"outputs":[{"name":"","type":"uint256","internalType":"uint256"}],"stateMutability":"view"},{"type":"function","name":"tokenOfOwnerByIndex","inputs":[{"name":"owner","type":"address","internalType":"address"},{"name":"index","type":"uint256","internalType":"uint256"}],"outputs":[{"name":"","type":"uint256","internalType":"uint256"}],"stateMutability":"view"},{"type":"function","name":"tokenURI","inputs":[{"name":"tokenId","type":"uint256","internalType":"uint256"}],"outputs":[{"name":"","type":"string","internalType":"string"}],"stateMutability":"view"},{"type":"function","name":"totalSupply","inputs":[],"outputs":[{"name":"","type":"uint256","internalType":"uint256"}],"stateMutability":"view"},{"type":"function","name":"transferFrom","inputs":[{"name":"from","type":"address","internalType":"address"},{"name":"to","type":"address","internalType":"address"},{"name":"tokenId","type":"uint256","internalType":"uint256"}],"outputs":[],"stateMutability":"nonpayable"},{"type":"function","name":"transferOwnership","inputs":[{"name":"newOwner","type":"address","internalType":"address"}],"outputs":[],"stateMutability":"nonpayable"},{"type":"function","name":"unlockTransfer","inputs":[],"outputs":[],"stateMutability":"payable"},{"type":"function","name":"upgradeToAndCall","inputs":[{"name":"newImplementation","type":"address","internalType":"address"},{"name":"data","type":"bytes","internalType":"bytes"}],"outputs":[],"stateMutability":"payable"},{"type":"function","name":"withdrawFees","inputs":[{"name":"to","type":"address","internalType":"address payable"}],"outputs":[],"stateMutability":"nonpayable"},{"type":"event","name":"Approval","inputs":[{"name":"owner","type":"address","indexed":true,"internalType":"address"},{"name":"approved","type":"address","indexed":true,"internalType":"address"},{"name":"tokenId","type":"uint256","indexed":true,"internalType":"uint256"}],"anonymous":false},{"type":"event","name":"ApprovalForAll","inputs":[{"name":"owner","type":"address","indexed":true,"internalType":"address"},{"name":"operator","type":"address","indexed":true,"internalType":"address"},{"name":"approved","type":"bool","indexed":false,"internalType":"bool"}],"anonymous":false},{"type":"event","name":"GuardianMinted","inputs":[{"name":"tokenId","type":"uint256","indexed":true,"internalType":"uint256"},{"name":"owner","type":"address","indexed":true,"internalType":"address"},{"name":"tier","type":"uint8","indexed":false,"internalType":"enum GuardianNFT.Tier"}],"anonymous":false},{"type":"event","name":"GuardianUpgraded","inputs":[{"name":"tokenId","type":"uint256","indexed":true,"internalType":"uint256"},{"name":"oldTier","type":"uint8","indexed":false,"internalType":"enum GuardianNFT.Tier"},{"name":"newTier","type":"uint8","indexed":false,"internalType":"enum GuardianNFT.Tier"},{"name":"totalRetired","type":"uint256","indexed":false,"internalType":"uint256"}],"anonymous":false},{"type":"event","name":"Initialized","inputs":[{"name":"version","type":"uint64","indexed":false,"internalType":"uint64"}],"anonymous":false},{"type":"event","name":"NicknameUpdated","inputs":[{"name":"tokenId","type":"uint256","indexed":true,"internalType":"uint256"},{"name":"nickname","type":"string","indexed":false,"internalType":"string"}],"anonymous":false},{"type":"event","name":"OwnershipTransferred","inputs":[{"name":"previousOwner","type":"address","indexed":true,"internalType":"address"},{"name":"newOwner","type":"address","indexed":true,"internalType":"address"}],"anonymous":false},{"type":"event","name":"RetirementRecorded","inputs":[{"name":"tokenId","type":"uint256","indexed":true,"internalType":"uint256"},{"name":"amount","type":"uint256","indexed":false,"internalType":"uint256"},{"name":"newTotal","type":"uint256","indexed":false,"internalType":"uint256"}],"anonymous":false},{"type":"event","name":"Transfer","inputs":[{"name":"from","type":"address","indexed":true,"internalType":"address"},{"name":"to","type":"address","indexed":true,"internalType":"address"},{"name":"tokenId","type":"uint256","indexed":true,"internalType":"uint256"}],"anonymous":false},{"type":"event","name":"TransferUnlocked","inputs":[{"name":"tokenId","type":"uint256","indexed":true,"internalType":"uint256"},{"name":"feePaid","type":"uint256","indexed":false,"internalType":"uint256"}],"anonymous":false},{"type":"event","name":"Upgraded","inputs":[{"name":"implementation","type":"address","indexed":true,"internalType":"address"}],"anonymous":false},{"type":"error","name":"AddressEmptyCode","inputs":[{"name":"target","type":"address","internalType":"address"}]},{"type":"error","name":"AlreadyHasGuardian","inputs":[]},{"type":"error","name":"AlreadyUnlocked","inputs":[]},{"type":"error","name":"ERC1967InvalidImplementation","inputs":[{"name":"implementation","type":"address","internalType":"address"}]},{"type":"error","name":"ERC1967NonPayable","inputs":[]},{"type":"error","name":"ERC721EnumerableForbiddenBatchMint","inputs":[]},{"type":"error","name":"ERC721IncorrectOwner","inputs":[{"name":"sender","type":"address","internalType":"address"},{"name":"tokenId","type":"uint256","internalType":"uint256"},{"name":"owner","type":"address","internalType":"address"}]},{"type":"error","name":"ERC721InsufficientApproval","inputs":[{"name":"operator","type":"address","internalType":"address"},{"name":"tokenId","type":"uint256","internalType":"uint256"}]},{"type":"error","name":"ERC721InvalidApprover","inputs":[{"name":"approver","type":"address","internalType":"address"}]},{"type":"error","name":"ERC721InvalidOperator","inputs":[{"name":"operator","type":"address","internalType":"address"}]},{"type":"error","name":"ERC721InvalidOwner","inputs":[{"name":"owner","type":"address","internalType":"address"}]},{"type":"error","name":"ERC721InvalidReceiver","inputs":[{"name":"receiver","type":"address","internalType":"address"}]},{"type":"error","name":"ERC721InvalidSender","inputs":[{"name":"sender","type":"address","internalType":"address"}]},{"type":"error","name":"ERC721NonexistentToken","inputs":[{"name":"tokenId","type":"uint256","internalType":"uint256"}]},{"type":"error","name":"ERC721OutOfBoundsIndex","inputs":[{"name":"owner","type":"address","internalType":"address"},{"name":"index","type":"uint256","internalType":"uint256"}]},{"type":"error","name":"FailedCall","inputs":[]},{"type":"error","name":"InsufficientUnlockFee","inputs":[]},{"type":"error","name":"InvalidInitialization","inputs":[]},{"type":"error","name":"InvalidNickname","inputs":[]},{"type":"error","name":"NoGuardian","inputs":[]},{"type":"error","name":"NotInitializing","inputs":[]},{"type":"error","name":"OwnableInvalidOwner","inputs":[{"name":"owner","type":"address","internalType":"address"}]},{"type":"error","name":"OwnableUnauthorizedAccount","inputs":[{"name":"account","type":"address","internalType":"address"}]},{"type":"error","name":"SoulboundToken","inputs":[]},{"type":"error","name":"UUPSUnauthorizedCallContext","inputs":[]},{"type":"error","name":"UUPSUnsupportedProxiableUUID","inputs":[{"name":"slot","type":"bytes32","internalType":"bytes32"}]},{"type":"error","name":"Unauthorized","inputs":[]}],"bytecode":{"object":"0x60a080604052346100e857306080527ff0c57e16840df040f15088dc2f81fe391c3923bec73e23a9662efc9c229c6a005460ff8160401c166100d9576002600160401b03196001600160401b03821601610073575b60405161395a90816100ed823960805181818161120c015261132a0152f35b6001600160401b0319166001600160401b039081177ff0c57e16840df040f15088dc2f81fe391c3923bec73e23a9662efc9c229c6a005581527fc7f505b2f371ae2175ee4913f4499e1f2633a7b5936321eed1cdaeb6115181d290602090a15f80610054565b63f92ee8a960e01b5f5260045ffd5b5f80fdfe6080806040526004361015610012575f80fd5b5f3560e01c90816301ffc9a71461249c5750806306f2791a1461247957806306fdde03146123bc578063081812fc14612373578063095ea7b314612287578063164e68de1461220757806318160ddd146121de5780631c0828c5146121bc5780631c5d9faa1461204057806323b872dd146120295780632b7b28521461200d5780632d44e36814611ff15780632edb245414611d515780632f4b307914611d2e5780632f745c5914611cb0578063369fd3e214611c8e578063384eaf2914611c725780633b44d65714611c565780633b5f3a5114611c335780633c2c11ab14610c125780633c4193d014611c1157806342842e0e14611be25780634571e3a6146116195780634bbca595146115cc5780634cc499d7146114a65780634f1ef286146112ec5780634f6ccce7146112925780634f973bac1461126057806352d1902d146111fa57806355f804b31461110e5780636352211e146110de5780636a23c4d7146110bd5780636c5a82c01461109c5780636d7e1a7a1461107a5780636ecd230614610e3857806370a0823114610e15578063715018a614610dae57806375794a3c14610d925780637a88bb021461041557806382a71ef214610d6a5780638da5cb5b14610d365780638ff29cfe14610cf957806395d89b4114610c17578063972eaf4a14610c1257806399fc65d414610bd4578063a22cb46514610b49578063abe5406014610b21578063acd52e8d14610ae9578063ad3cb1cc14610aa2578063b256456914610a70578063b3382b0414610a55578063b6dfad0114610a1d578063b88d4fde146109c3578063bf48670b146109a7578063bf6d9abd146108c6578063c87b56dd1461060b578063c97fa6b91461047b578063e985e9c51461042f578063ed5bf1f414610415578063f2fde38b146103ea578063f4277c6d146103c7578063f560c7341461032b578063fc5fad071461030f5763fdfdc29c146102dc575f80fd5b3461030b57602036600319011261030b5760206102ff6102fa612521565b61300c565b61ffff60405191168152f35b5f80fd5b3461030b575f36600319011261030b5760206040516103e88152f35b3461030b57602036600319011261030b576004355f52600160205260405f2080546001820154916103bb600282015491600381015460ff6005610370600485016127b2565b93015416936103a060405197889788526103906020890160ff83166126a3565b60ff604089019160081c166126b0565b6060860152608085015260e060a085015260e084019061254d565b90151560c08301520390f35b3461030b575f36600319011261030b576020604051681b1ae4d6e2ef5000008152f35b3461030b57602036600319011261030b57610413610406612521565b61040e6130ba565b612f9b565b005b3461030b575f36600319011261030b5760206040515f8152f35b3461030b57604036600319011261030b57610448612521565b610459610453612537565b916126db565b9060018060a01b03165f52602052602060ff60405f2054166040519015158152f35b3461030b57604036600319011261030b57610494612521565b60243590335f52600560205260ff60405f20541615806105ea575b6105dc576001600160a01b03165f908152600260205260409020549081156105cd57815f52600160205260405f209081548181018091116105b957837f1fb2e8e495252d9a7f065e04810247551fbbe0a67da79b293f5971ab34ef196f6040610526948487558151908152846020820152a26130ed565b90600181019160ff8354169060058210156105a55760058110156105a55781811161054d57005b61059d60609361057e837f8d55f32f35a5016ed89ac83d5a0a14d0be3c6b479d85f27675b256b204bceeb597612d32565b426003820155549161059360405180956126a3565b60208401906126a3565b6040820152a2005b634e487b7160e01b5f52602160045260245ffd5b634e487b7160e01b5f52601160045260245ffd5b6301e8dab560e61b5f5260045ffd5b6282b42960e81b5f5260045ffd5b505f80516020613865833981519152546001600160a01b03163314156104af565b3461030b57602036600319011261030b576004356106288161308b565b5060405160045490915f8361063c8461277a565b9182825260208201946001811690815f146108aa575060011461084b575b61066692500384612631565b82511561082f578092815f9272184f03e93ff9f4daa797ed6e38ed64bf6a1f0160401b811015610809575b50806d04ee2d6d415b85acef8100000000600a9210156107ee575b662386f26fc100008110156107da575b6305f5e1008110156107c9575b6127108110156107ba575b60648110156107ac575b10156107a2575b6001820193600a60216107106106fa88612652565b97610708604051998a612631565b808952612652565b602088019590601f19013687378701015b5f1901916f181899199a1a9b1b9c1cb0b131b232b360811b8282061a83530490811561074f57600a90610721565b5050602061078a9261079e956040519586945180918587015e840190838201905f8252519283915e01015f815203601f198101835282612631565b60405191829160208352602083019061254d565b0390f35b90600101906106e5565b6064600291049301926106de565b612710600491049301926106d4565b6305f5e100600891049301926106c9565b662386f26fc10000601091049301926106bc565b6d04ee2d6d415b85acef8100000000602091049301926106ac565b6040935072184f03e93ff9f4daa797ed6e38ed64bf6a1f0160401b90049050600a610691565b50505061079e604051610843602082612631565b5f815261078a565b5060045f90815290917f8a35acfbc15ff81a39ae7d344fd709f28e8600b4aa8c65c6b64bfe7fe36bd19b5b81831061088e5750509060206106669282010161065a565b6020919350806001915483858a01015201910190918592610876565b60ff191686525061066692151560051b8201602001905061065a565b5f36600319011261030b57335f52600260205260405f205480156105cd57805f52600160205260405f20906005820180549260ff84166109985760ff600161091092015416613544565b928334106109895760019060ff19161790557fd6b6047e7226a4a1d74c70bc4eee9e355c1b2ab27788fd086718ed5b9ab1c9206020604051348152a280341161095557005b5f8080610963819434612d4a565b818115610980575b3390f11561097557005b6040513d5f823e3d90fd5b506108fc61096b565b63b260c30560e01b5f5260045ffd5b6328486b6360e11b5f5260045ffd5b3461030b575f36600319011261030b576020604051610fa08152f35b3461030b57608036600319011261030b576109dc612521565b6109e4612537565b90604435606435926001600160401b03841161030b57610a0b6104139436906004016126bd565b92610a1783838361292d565b336135a9565b3461030b57602036600319011261030b576004355f5260016020526020610a4d60ff600160405f20015416613544565b604051908152f35b3461030b575f36600319011261030b57602060405160c88152f35b3461030b57602036600319011261030b576004355f526001602052602060ff600560405f200154166040519015158152f35b3461030b575f36600319011261030b5761079e604051610ac3604082612631565b60058152640352e302e360dc1b602082015260405191829160208352602083019061254d565b3461030b57602036600319011261030b576001600160a01b03610b0a612521565b165f526002602052602060405f2054604051908152f35b3461030b57602036600319011261030b57600435600581101561030b57610a4d602091612f40565b3461030b57610b573661274b565b6001600160a01b03909116908115610bc157610b72336126db565b825f52602052610b918160405f209060ff801983541691151516179055565b60405190151581527f17307eab39ab6107e8899845ad3d59bd9653f200f220920489ca2b5937696c3160203392a3005b50630b61174360e31b5f5260045260245ffd5b3461030b57610413610be53661274b565b90610bee6130ba565b60018060a01b03165f52600560205260405f209060ff801983541691151516179055565b6125fa565b3461030b575f36600319011261030b576040515f5f8051602061390583398151915254610c438161277a565b8084529060018116908115610cd55750600114610c6b575b61079e8361078a81850382612631565b5f805160206139058339815191525f9081527ff4bad0a69248f59680a4f2b3000328cec71a413447c96781cfe5996daa8c456e939250905b808210610cbb5750909150810160200161078a610c5b565b919260018160209254838588010152019101909291610ca3565b60ff191660208086019190915291151560051b8401909101915061078a9050610c5b565b3461030b57602036600319011261030b576001600160a01b03610d1a612521565b165f526005602052602060ff60405f2054166040519015158152f35b3461030b575f36600319011261030b575f80516020613865833981519152546040516001600160a01b039091168152602090f35b3461030b575f36600319011261030b576003546040516001600160a01b039091168152602090f35b3461030b575f36600319011261030b5760205f54604051908152f35b3461030b575f36600319011261030b57610dc66130ba565b5f8051602061386583398151915280546001600160a01b031981169091555f906001600160a01b03167f8be0079c531659141344cd1fd0a4f28419497f9722a3daafe3b4186f6b6457e08280a3005b3461030b57602036600319011261030b576020610a4d610e33612521565b612f11565b3461030b57602036600319011261030b57600435600681101561030b57335f52600260205260405f205461106b575f54610e7181612d0c565b5f55604051610e7f81612616565b5f815260208101925f8452610e98604083019182612d26565b60608201934285526080830142815260209560405192610eb88885612631565b5f845260a0860193845260c08601945f8652875f526001895260405f209651875560018701915160058110156105a557610ef29083612d32565b5160068110156105a557815461ff00191660089190911b61ff001617905551600285015551600384015551805160048401916001600160401b03821161105757610f4682610f40855461277a565b856128de565b8690601f8311600114610fec5782610f9696959360059593610f7d935f92610fe1575b50508160011b915f199060031b1c19161790565b90555b51151591019060ff801983541691151516179055565b335f52600282528060405f2055610fad8133613144565b6040515f8152817f5705678b66ad093d7575da500de3130af7ea3e33add399e9d8c0c78a9de114a2843393a3604051908152f35b015190508a80610f69565b90601f19831691845f52885f20925f5b8a828210611041575050926001928592610f969998966005989610611029575b505050811b019055610f80565b01515f1960f88460031b161c1916905589808061101c565b6001859682939686015181550195019301610ffc565b634e487b7160e01b5f52604160045260245ffd5b63e20bdbb560e01b5f5260045ffd5b3461030b575f36600319011261030b576020604051678ac7230489e800008152f35b3461030b575f36600319011261030b57602060405166470de4df8200008152f35b3461030b575f36600319011261030b57602060405166b1a2bc2ec500008152f35b3461030b57602036600319011261030b5760206110fc60043561308b565b6040516001600160a01b039091168152f35b3461030b5761111c36612571565b6111246130ba565b6001600160401b038111611057576111468161114160045461277a565b61288e565b5f601f8211600114611182578190611172935f926111775750508160011b915f199060031b1c19161790565b600455005b013590508380610f69565b601f198216927f8a35acfbc15ff81a39ae7d344fd709f28e8600b4aa8c65c6b64bfe7fe36bd19b915f5b8581106111e2575083600195106111c9575b505050811b01600455005b01355f19600384901b60f8161c191690558280806111be565b909260206001819286860135815501940191016111ac565b3461030b575f36600319011261030b577f00000000000000000000000000000000000000000000000000000000000000006001600160a01b031630036112515760206040515f805160206138858339815191528152f35b63703e46dd60e11b5f5260045ffd5b3461030b57602036600319011261030b57602061128361127e612521565b612ed6565b61129060405180926126b0565bf35b3461030b57602036600319011261030b576004355f805160206138a5833981519152548110156112d6576112c7602091612e92565b90549060031b1c604051908152f35b63295f44f760e21b5f525f60045260245260445ffd5b604036600319011261030b57611300612521565b6024356001600160401b03811161030b5761131f9036906004016126bd565b906001600160a01b037f000000000000000000000000000000000000000000000000000000000000000016308114908115611484575b50611251576113626130ba565b6040516352d1902d60e01b81526001600160a01b0382169290602081600481875afa5f9181611450575b506113a45783634c9c8ce360e01b5f5260045260245ffd5b805f8051602061388583398151915285920361143e5750823b1561142c575f8051602061388583398151915280546001600160a01b031916821790557fbc7cd75a20ee27fd9adebab32041f755214dbc6bffa90cc0225b39da2e5c2d3b5f80a28051156114145761041391613778565b50503461141d57005b63b398979f60e01b5f5260045ffd5b634c9c8ce360e01b5f5260045260245ffd5b632a87526960e21b5f5260045260245ffd5b9091506020813d60201161147c575b8161146c60209383612631565b8101031261030b5751908561138c565b3d915061145f565b5f80516020613885833981519152546001600160a01b03161415905083611355565b3461030b57602036600319011261030b575f60c06040516114c681612616565b828152826020820152826040820152826060820152826080820152606060a082015201526004355f52600160205260405f2060405161150481612616565b8154815260018201546115bf602083019361152260ff841686612d1a565b61153660ff604086019460081c1684612d26565b600281015460608501908152600382015490608086019182526115a060ff6005611562600487016127b2565b9560a08a019687520154169560c088019615158752611595604051998a9960208b525160208b01525160408a01906126a3565b5160608801906126b0565b5160808601525160a08501525160e060c085015261010084019061254d565b9051151560e08301520390f35b3461030b57602036600319011261030b57608061160d6115f26115ed612521565b612d57565b9293909161160360405180966126a3565b60208501906126a3565b60408301526060820152f35b3461030b57606036600319011261030b57611632612521565b61163a612537565b6044356001600160401b03811161030b573660238201121561030b5761166a90369060248160040135910161266d565b915f805160206138e5833981519152549060ff8260401c1615916001600160401b03811680159081611bda575b6001149081611bd0575b159081611bc7575b50611bb85767ffffffffffffffff1981166001175f805160206138e58339815191525582611b8c575b5060409283516116e28582612631565b601081526f21b0b93137b72c1023bab0b93234b0b760811b602082015284519061170c8683612631565b600882526723aaa0a92224a0a760c11b602083015261172961374d565b61173161374d565b8051906001600160401b038211611057576117595f805160206138458339815191525461277a565b601f8111611b1d575b50602090601f8311600114611a825761179192915f91836119875750508160011b915f199060031b1c19161790565b5f80516020613845833981519152555b8051906001600160401b038211611057576117c95f805160206139058339815191525461277a565b601f8111611a13575b50602090601f83116001146119925791806118069261182e95945f926119875750508160011b915f199060031b1c19161790565b5f80516020613905833981519152555b61181e61374d565b61182661374d565b61040e61374d565b60018060a01b03166001600160601b0360a01b600354161760035582516001600160401b038111611057576118688161114160045461277a565b6020601f82116001146119065781906118979394955f926118fb5750508160011b915f199060031b1c19161790565b6004555b60015f556118a557005b60207fc7f505b2f371ae2175ee4913f4499e1f2633a7b5936321eed1cdaeb6115181d29168ff0000000000000000195f805160206138e583398151915254165f805160206138e5833981519152555160018152a1005b015190508580610f69565b601f1982169060045f527f8a35acfbc15ff81a39ae7d344fd709f28e8600b4aa8c65c6b64bfe7fe36bd19b915f5b81811061196f57509583600195969710611957575b505050811b0160045561189b565b01515f1960f88460031b161c19169055848080611949565b9192602060018192868b015181550194019201611934565b015190508980610f69565b90601f198316915f805160206139058339815191525f52815f20925f5b8181106119fb575091600193918561182e979694106119e3575b505050811b015f8051602061390583398151915255611816565b01515f1960f88460031b161c191690558880806119c9565b929360206001819287860151815501950193016119af565b5f805160206139058339815191525f527ff4bad0a69248f59680a4f2b3000328cec71a413447c96781cfe5996daa8c456e601f840160051c81019160208510611a78575b601f0160051c01905b818110611a6d57506117d2565b5f8155600101611a60565b9091508190611a57565b90601f198316915f805160206138458339815191525f527f37c58c799b6609234b945e882912ee9ad34948a1dfaa20a97485e1a7752bbf81925f5b818110611b055750908460019594939210611aed575b505050811b015f80516020613845833981519152556117a1565b01515f1960f88460031b161c19169055888080611ad3565b92936020600181928786015181550195019301611abd565b5f805160206138458339815191525f527f37c58c799b6609234b945e882912ee9ad34948a1dfaa20a97485e1a7752bbf81601f840160051c81019160208510611b82575b601f0160051c01905b818110611b775750611762565b5f8155600101611b6a565b9091508190611b61565b68ffffffffffffffffff191668010000000000000001175f805160206138e583398151915255846116d2565b63f92ee8a960e01b5f5260045ffd5b905015866116a9565b303b1591506116a1565b849150611697565b3461030b57610413611bf3366125c0565b9060405192611c03602085612631565b5f8452610a1783838361292d565b3461030b575f36600319011261030b5760206040516706f05b59d3b200008152f35b3461030b575f36600319011261030b576020604051680ad78ebc5ac62000008152f35b3461030b575f36600319011261030b5760206040516105dc8152f35b3461030b575f36600319011261030b5760206040516117708152f35b3461030b575f36600319011261030b5760206040516703782dace9d900008152f35b3461030b57604036600319011261030b57611cc9612521565b60243590611cd681612f11565b821015611d115760018060a01b03165f525f8051602061382583398151915260205260405f20905f52602052602060405f2054604051908152f35b63295f44f760e21b5f5260018060a01b031660045260245260445ffd5b3461030b575f36600319011261030b5760206040516802b5e3af16b18800008152f35b3461030b57606036600319011261030b57611d6a612521565b604435602435600682101561030b57335f52600560205260ff60405f2054161580611fd0575b6105dc576001600160a01b0383165f8181526002602052604090205490919061106b575f5492611dbf84612d0c565b5f55611dca826130ed565b9160405190611dd882612616565b81526020810192611de98185612d1a565b611df7604083019384612d26565b60608201964288526080830142815260209860405196611e178b89612631565b5f885260a0860197885260c08601965f88528a5f5260018c5260405f209651875560018701915160058110156105a557611e519083612d32565b5160068110156105a55761ff0082549160081b169061ff001916179055516002850155516003840155600483019451928351946001600160401b03861161105757858a95611eaa8b98611ea48b5461277a565b8b6128de565b8690601f8311600114611f3a57611f199593899a610f7d85611f07967f5705678b66ad093d7575da500de3130af7ea3e33add399e9d8c0c78a9de114a29d99966005965f92611f2f5750508160011b915f199060031b1c19161790565b875f52600285528160405f2055613144565b611f2660405180926126a3565ba3604051908152f35b015190505f80610f69565b601f9992919919821690835f52885f20915f5b818110611fb65750936001846005948d9e611f199b99957f5705678b66ad093d7575da500de3130af7ea3e33add399e9d8c0c78a9de114a29f9b98611f079a10611f9e57505050811b019055610f80565b01515f1960f88460031b161c191690555f808061101c565b8c83015184559b8a019b8e9b506001909301928a01611f4d565b505f80516020613865833981519152546001600160a01b0316331415611d90565b3461030b575f36600319011261030b576020604051611f408152f35b3461030b575f36600319011261030b5760206040516101f48152f35b3461030b5761041361203a366125c0565b9161292d565b3461030b5761204e36612571565b335f52600260205260405f20549182156105cd57602082116121ad57825f526001602052600460405f20016001600160401b0383116110575761209b83612095835461277a565b836128de565b5f601f841160011461212557916040916120ed85807f6e07a65aae87f94e918e2b5af56931579f3bacaa90c8906472637ec24364b89397965f9161211a575b508160011b915f199060031b1c19161790565b90555b82825193849260208452816020850152848401375f828201840152601f01601f19168101030190a2005b9050840135896120da565b601f19841690825f5260205f20915f5b81811061219557509160409391867f6e07a65aae87f94e918e2b5af56931579f3bacaa90c8906472637ec24364b8939796941061217c575b5050600184811b0190556120f0565b8301355f19600387901b60f8161c19169055868061216d565b91926020600181928689013581550194019201612135565b633ef2fe7f60e11b5f5260045ffd5b3461030b575f36600319011261030b57602060405167016345785d8a00008152f35b3461030b575f36600319011261030b5760205f805160206138a583398151915254604051908152f35b3461030b57602036600319011261030b576004356001600160a01b0381169081900361030b576122356130ba565b4790811561224c575f808093819382f11561097557005b60405162461bcd60e51b81526020600482015260136024820152724e6f206665657320746f20776974686472617760681b6044820152606490fd5b3461030b57604036600319011261030b576122a0612521565b6024356122ac8161308b565b33151580612360575b8061233d575b61232a5781906001600160a01b0384811691167f8c5be1e5ebec7d5bd14f71427d1e84f3dd0314c0f7b2291e5b200ac8c7c3b9255f80a45f9081525f805160206138c58339815191526020526040902080546001600160a01b0319166001600160a01b03909216919091179055005b63a9fbf51f60e01b5f523360045260245ffd5b50612347816126db565b335f908152602091909152604090205460ff16156122bb565b506001600160a01b0381163314156122b5565b3461030b57602036600319011261030b5760206110fc6004356123958161308b565b505f9081525f805160206138c583398151915260205260409020546001600160a01b031690565b3461030b575f36600319011261030b576040515f5f80516020613845833981519152546123e88161277a565b8084529060018116908115610cd5575060011461240f5761079e8361078a81850382612631565b5f805160206138458339815191525f9081527f37c58c799b6609234b945e882912ee9ad34948a1dfaa20a97485e1a7752bbf81939250905b80821061245f5750909150810160200161078a610c5b565b919260018160209254838588010152019101909291612447565b3461030b57602036600319011261030b5760206102ff612497612521565b612852565b3461030b57602036600319011261030b576004359063ffffffff60e01b821680920361030b5760209163780e9d6360e01b81149081156124de575b5015158152f35b6380ac58cd60e01b811491508115612510575b81156124ff575b50836124d7565b6301ffc9a760e01b149050836124f8565b635b5e139f60e01b811491506124f1565b600435906001600160a01b038216820361030b57565b602435906001600160a01b038216820361030b57565b805180835260209291819084018484015e5f828201840152601f01601f1916010190565b90602060031983011261030b576004356001600160401b03811161030b578260238201121561030b578060040135926001600160401b03841161030b576024848301011161030b576024019190565b606090600319011261030b576004356001600160a01b038116810361030b57906024356001600160a01b038116810361030b579060443590565b3461030b575f36600319011261030b5760206040516107d08152f35b60e081019081106001600160401b0382111761105757604052565b90601f801991011681019081106001600160401b0382111761105757604052565b6001600160401b03811161105757601f01601f191660200190565b92919261267982612652565b916126876040519384612631565b82948184528183011161030b578281602093845f960137010152565b9060058210156105a55752565b9060068210156105a55752565b9080601f8301121561030b578160206126d89335910161266d565b90565b6001600160a01b03165f9081527f80bb2b638cc20bc4d0a60d66940f3ab4a00c1d7b313497ca82fb0b4ab00793056020526040902090565b6001600160a01b03165f9081527f80bb2b638cc20bc4d0a60d66940f3ab4a00c1d7b313497ca82fb0b4ab00793036020526040902090565b604090600319011261030b576004356001600160a01b038116810361030b5790602435801515810361030b5790565b90600182811c921680156127a8575b602083101461279457565b634e487b7160e01b5f52602260045260245ffd5b91607f1691612789565b9060405191825f8254926127c58461277a565b808452936001811690811561283057506001146127ec575b506127ea92500383612631565b565b90505f9291925260205f20905f915b8183106128145750509060206127ea928201015f6127dd565b60209193508060019154838589010152019101909184926127fb565b9050602092506127ea94915060ff191682840152151560051b8201015f6127dd565b6001600160a01b03165f908152600260205260409020548015612889575f5260016020526126d860ff600160405f20015416613043565b505f90565b601f811161289a575050565b60045f5260205f20906020601f840160051c830193106128d4575b601f0160051c01905b8181106128c9575050565b5f81556001016128be565b90915081906128b5565b601f82116128eb57505050565b5f5260205f20906020601f840160051c83019310612923575b601f0160051c01905b818110612918575050565b5f815560010161290d565b9091508190612904565b9091906001600160a01b0383168015612cf9576001600160a01b0361295184613714565b1680151580612cf1575b612ca9575b5061296a83613714565b9033151580612bfb575b506001600160a01b0382169485158015612bbf575b61299282612713565b60018154019055855f527f80bb2b638cc20bc4d0a60d66940f3ab4a00c1d7b313497ca82fb0b4ab007930260205260405f20836001600160601b0360a01b8254161790558583887fddf252ad1be2c89b69c2b068fc378daa952ba7f163c4a11628f55a4df523b3ef5f80a415612b12575f805160206138a583398151915254855f527f645e039705490088daad89bae25049a34f4a9072d398537b1ab2425f24cbed036020528060405f2055600160401b8110156110575785612a6a826001612a8294015f805160206138a583398151915255612e92565b90919082549060031b91821b915f19901b1916179055565b818603612aba575b5050506001600160a01b0316808303612aa257505050565b6364283d7b60e01b5f5260045260245260445260645ffd5b612ac390612f11565b5f198101919082116105b9575f525f8051602061382583398151915260205260405f20815f526020528360405f2055835f525f8051602061380583398151915260205260405f20555f80612a8a565b858214612a8257612b2283612f11565b855f525f8051602061380583398151915260205260405f205490875f525f8051602061382583398151915260205260405f2091818103612b88575b50865f525f805160206138058339815191526020525f60408120555f526020525f6040812055612a82565b815f528260205260405f2054815f52836020528060405f20555f525f8051602061380583398151915260205260405f20555f612b5d565b5f8681525f805160206138c58339815191526020526040902080546001600160a01b0319169055612bef84612713565b80545f19019055612989565b80612c43575b15612c0c575f612974565b836001600160a01b038316612c2d57637e27328960e01b5f5260045260245ffd5b63177e802f60e01b5f523360045260245260445ffd5b506001600160a01b03821633148015612c87575b80612c0157505f8481525f805160206138c583398151915260205260409020546001600160a01b03163314612c01565b50612c91826126db565b335f908152602091909152604090205460ff16612c57565b835f52600160205260ff600560405f2001541615612ce2575f5260026020525f6040812055805f5260026020528260405f20555f612960565b636e10574960e01b5f5260045ffd5b50600161295b565b633250574960e11b5f525f60045260245ffd5b5f1981146105b95760010190565b60058210156105a55752565b60068210156105a55752565b9060058110156105a55760ff80198354169116179055565b919082039182116105b957565b6001600160a01b03165f908152600260205260409020548015612e7e575f52600160205260405f209060ff60018301541691549060058310156105a55760048314612e705760058310156105a55782612e07575f90678ac7230489e80000916001935b612dce612dc78386612d4a565b9282612d4a565b916064830292808404606414901517156105b9578015612df3576126d8920493612d4a565b634e487b7160e01b5f52601260045260245ffd5b60018303612e2c57678ac7230489e80000906802b5e3af16b188000091600293612dba565b60028303612e52576802b5e3af16b188000090680ad78ebc5ac620000091600393612dba565b680ad78ebc5ac620000090681b1ae4d6e2ef50000091600493612dba565b600492508291506064905f90565b505f906001905f90678ac7230489e8000090565b5f805160206138a583398151915254811015612ec2575f805160206138a58339815191525f5260205f2001905f90565b634e487b7160e01b5f52603260045260245ffd5b6001600160a01b03165f908152600260205260409020548015612f0b575f52600160205260ff600160405f20015460081c1690565b50600490565b6001600160a01b03811615612f2d57612f2990612713565b5490565b6322718ad960e21b5f525f60045260245ffd5b60058110156105a55780156128895760018114612f8e5760028114612f8057600314612f7357681b1ae4d6e2ef50000090565b680ad78ebc5ac620000090565b506802b5e3af16b188000090565b50678ac7230489e8000090565b6001600160a01b03168015612ff9575f8051602061386583398151915280546001600160a01b0319811683179091556001600160a01b03167f8be0079c531659141344cd1fd0a4f28419497f9722a3daafe3b4186f6b6457e05f80a3565b631e4fbdf760e01b5f525f60045260245ffd5b6001600160a01b03165f908152600260205260409020548015612889575f5260016020526126d860ff600160405f200154166136cd565b60058110156105a55760048114613084576003811461307d5760028114613076576001146130705760c890565b6101f490565b506103e890565b506105dc90565b506107d090565b61309481613714565b906001600160a01b038216156130a8575090565b637e27328960e01b5f5260045260245ffd5b5f80516020613865833981519152546001600160a01b031633036130da57565b63118cdaa760e01b5f523360045260245ffd5b681b1ae4d6e2ef500000811015612f0b57680ad78ebc5ac620000081101561313e576802b5e3af16b188000081101561313857678ac7230489e800001115613133575f90565b600190565b50600290565b50600390565b90602090604051906131568383612631565b5f82526001600160a01b038416938415612cf9576001600160a01b0361317b83613714565b168015158061353c575b613506575b5061319482613714565b6001600160a01b038116801580159291908890846134ca575b6131b686612713565b60018154019055865f527f80bb2b638cc20bc4d0a60d66940f3ab4a00c1d7b313497ca82fb0b4ab0079302895260405f20826001600160601b0360a01b8254161790558682847fddf252ad1be2c89b69c2b068fc378daa952ba7f163c4a11628f55a4df523b3ef5f80a41561342357505f805160206138a58339815191525490855f527f645e039705490088daad89bae25049a34f4a9072d398537b1ab2425f24cbed0388528160405f2055600160401b8210156110575761328f86612a6a8460018d96015f805160206138a583398151915255612e92565b036133d0575b506133bd573b6132a6575b50505050565b916132e391819495936040519384928392630a85bd0160e11b84523360048501525f6024850152604484015260806064840152608483019061254d565b03815f885af15f918161337d575b506133465750503d1561333e573d9061330982612652565b916133176040519384612631565b82523d5f8284013e5b8151918261333b5783633250574960e11b5f5260045260245ffd5b01fd5b606090613320565b909291506001600160e01b03191663757a42ff60e11b0161336b57505f8080806132a0565b633250574960e11b5f5260045260245ffd5b9091508381813d83116133b6575b6133958183612631565b8101031261030b57516001600160e01b03198116810361030b57905f6132f1565b503d61338b565b6339e3563760e11b5f525f60045260245ffd5b6133d983612f11565b5f1981019081116105b957875f525f80516020613825833981519152875260405f20815f5287528460405f2055845f525f80516020613805833981519152875260405f2055613295565b9080821461328f5761343483612f11565b865f525f80516020613805833981519152895260405f205490825f525f805160206138258339815191528a5260405f2091818103613496575b50875f525f805160206138058339815191528a525f60408120555f5288525f604081205561328f565b815f52828b5260405f2054815f52838c528060405f20555f525f805160206138058339815191528b5260405f20555f61346d565b5f8781525f805160206138c58339815191526020526040902080546001600160a01b03191690556134fa84612713565b80545f190190556131ad565b825f526001855260ff600560405f2001541615612ce2575f52600284525f6040812055845f52600284528160405f20555f61318a565b506001613185565b60058110156105a5576004811461359c576003811461358f5760028114613582576001146135775766470de4df82000090565b66b1a2bc2ec5000090565b5067016345785d8a000090565b506703782dace9d9000090565b506706f05b59d3b2000090565b823b6135b7575b5050505050565b604051630a85bd0160e11b81526001600160a01b03918216600482015291811660248301526044820193909352608060648201529116916020908290819061360390608483019061254d565b03815f865af15f9181613688575b5061366657503d1561365f573d61362781612652565b906136356040519283612631565b81523d5f602083013e5b8051908161365a5782633250574960e11b5f5260045260245ffd5b602001fd5b606061363f565b6001600160e01b03191663757a42ff60e11b0161336b57505f808080806135b0565b9091506020813d6020116136c5575b816136a460209383612631565b8101031261030b57516001600160e01b03198116810361030b57905f613611565b3d9150613697565b60058110156105a5576004811461370d576003811461370657600281146136ff576001146136f9575f90565b6107d090565b50610fa090565b5061177090565b50611f4090565b5f9081527f80bb2b638cc20bc4d0a60d66940f3ab4a00c1d7b313497ca82fb0b4ab007930260205260409020546001600160a01b031690565b60ff5f805160206138e58339815191525460401c161561376957565b631afcd79f60e31b5f5260045ffd5b905f8091602081519101845af480806137f1575b156137ac5750506040513d81523d5f602083013e60203d82010160405290565b156137d157639996b31560e01b5f9081526001600160a01b0391909116600452602490fd5b3d156137e2576040513d5f823e3d90fd5b63d6bda27560e01b5f5260045ffd5b503d15158061378c5750813b151561378c56fe645e039705490088daad89bae25049a34f4a9072d398537b1ab2425f24cbed01645e039705490088daad89bae25049a34f4a9072d398537b1ab2425f24cbed0080bb2b638cc20bc4d0a60d66940f3ab4a00c1d7b313497ca82fb0b4ab00793009016d09d72d40fdae2fd8ceac6b6234c7706214fd39c1cd1e609a0528c199300360894a13ba1a3210667c828492db98dca3e2076cc3735a920a3ca505d382bbc645e039705490088daad89bae25049a34f4a9072d398537b1ab2425f24cbed0280bb2b638cc20bc4d0a60d66940f3ab4a00c1d7b313497ca82fb0b4ab0079304f0c57e16840df040f15088dc2f81fe391c3923bec73e23a9662efc9c229c6a0080bb2b638cc20bc4d0a60d66940f3ab4a00c1d7b313497ca82fb0b4ab0079301a2646970667358221220d16a4237da4a199faad456bdc4a970730007d033aa2102b7abd81013fd6bd6ff64736f6c634300081a0033","linkReferences":{}},"methodIdentifiers":{"COMMON_DISCOUNT()":"b3382b04","COMMON_FEE_REDUCTION()":"ed5bf1f4","COMMON_THRESHOLD()":"7a88bb02","COMMON_UNLOCK_FEE()":"6c5a82c0","EPIC_DISCOUNT()":"3b44d657","EPIC_FEE_REDUCTION()":"384eaf29","EPIC_THRESHOLD()":"3b5f3a51","EPIC_UNLOCK_FEE()":"369fd3e2","LEGENDARY_DISCOUNT()":"3c2c11ab","LEGENDARY_FEE_REDUCTION()":"2d44e368","LEGENDARY_THRESHOLD()":"f4277c6d","LEGENDARY_UNLOCK_FEE()":"3c4193d0","RARE_DISCOUNT()":"fc5fad07","RARE_FEE_REDUCTION()":"bf48670b","RARE_THRESHOLD()":"2f4b3079","RARE_UNLOCK_FEE()":"1c0828c5","UNCOMMON_DISCOUNT()":"2b7b2852","UNCOMMON_FEE_REDUCTION()":"972eaf4a","UNCOMMON_THRESHOLD()":"6d7e1a7a","UNCOMMON_UNLOCK_FEE()":"6a23c4d7","UPGRADE_INTERFACE_VERSION()":"ad3cb1cc","approve(address,uint256)":"095ea7b3","authorizedUpdaters(address)":"8ff29cfe","balanceOf(address)":"70a08231","carbonToken()":"82a71ef2","getApproved(uint256)":"081812fc","getDiscount(address)":"06f2791a","getFeeReduction(address)":"fdfdc29c","getGuardian(uint256)":"4cc499d7","getPath(address)":"4f973bac","getTierProgress(address)":"4bbca595","getTierThreshold(uint8)":"abe54060","getUnlockFee(uint256)":"b6dfad01","guardianOf(address)":"acd52e8d","guardians(uint256)":"f560c734","initialize(address,address,string)":"4571e3a6","isApprovedForAll(address,address)":"e985e9c5","isTransferable(uint256)":"b2564569","mint(uint8)":"6ecd2306","mintFor(address,uint256,uint8)":"2edb2454","name()":"06fdde03","nextTokenId()":"75794a3c","owner()":"8da5cb5b","ownerOf(uint256)":"6352211e","proxiableUUID()":"52d1902d","recordRetirement(address,uint256)":"c97fa6b9","renounceOwnership()":"715018a6","safeTransferFrom(address,address,uint256)":"42842e0e","safeTransferFrom(address,address,uint256,bytes)":"b88d4fde","setApprovalForAll(address,bool)":"a22cb465","setAuthorizedUpdater(address,bool)":"99fc65d4","setBaseURI(string)":"55f804b3","setNickname(string)":"1c5d9faa","supportsInterface(bytes4)":"01ffc9a7","symbol()":"95d89b41","tokenByIndex(uint256)":"4f6ccce7","tokenOfOwnerByIndex(address,uint256)":"2f745c59","tokenURI(uint256)":"c87b56dd","totalSupply()":"18160ddd","transferFrom(address,address,uint256)":"23b872dd","transferOwnership(address)":"f2fde38b","unlockTransfer()":"bf6d9abd","upgradeToAndCall(address,bytes)":"4f1ef286","withdrawFees(address)":"164e68de"},"storageLayout":{"storage":[{"astId":61021,"contract":"src/core/GuardianNFT.sol:GuardianNFT","label":"nextTokenId","offset":0,"slot":"0","type":"t_uint256"},{"astId":61027,"contract":"src/core/GuardianNFT.sol:GuardianNFT","label":"guardians","offset":0,"slot":"1","type":"t_mapping(t_uint256,t_struct(Guardian)60958_storage)"},{"astId":61032,"contract":"src/core/GuardianNFT.sol:GuardianNFT","label":"guardianOf","offset":0,"slot":"2","type":"t_mapping(t_address,t_uint256)"},{"astId":61036,"contract":"src/core/GuardianNFT.sol:GuardianNFT","label":"carbonToken","offset":0,"slot":"3","type":"t_contract(CarbonCreditToken)60902"},{"astId":61039,"contract":"src/core/GuardianNFT.sol:GuardianNFT","label":"_baseTokenURI","offset":0,"slot":"4","type":"t_string_storage"},{"astId":61044,"contract":"src/core/GuardianNFT.sol:GuardianNFT","label":"authorizedUpdaters","offset":0,"slot":"5","type":"t_mapping(t_address,t_bool)"}],"types":{"t_address":{"encoding":"inplace","label":"address","numberOfBytes":"20"},"t_bool":{"encoding":"inplace","label":"bool","numberOfBytes":"1"},"t_contract(CarbonCreditToken)60902":{"encoding":"inplace","label":"contract CarbonCreditToken","numberOfBytes":"20"},"t_enum(GuardianPath)60940":{"encoding":"inplace","label":"enum GuardianNFT.GuardianPath","numberOfBytes":"1"},"t_enum(Tier)60933":{"encoding":"inplace","label":"enum GuardianNFT.Tier","numberOfBytes":"1"},"t_mapping(t_address,t_bool)":{"encoding":"mapping","key":"t_address","label":"mapping(address => bool)","numberOfBytes":"32","value":"t_bool"},"t_mapping(t_address,t_uint256)":{"encoding":"mapping","key":"t_address","label":"mapping(address => uint256)","numberOfBytes":"32","value":"t_uint256"},"t_mapping(t_uint256,t_struct(Guardian)60958_storage)":{"encoding":"mapping","key":"t_uint256","label":"mapping(uint256 => struct GuardianNFT.Guardian)","numberOfBytes":"32","value":"t_struct(Guardian)60958_storage"},"t_string_storage":{"encoding":"bytes","label":"string","numberOfBytes":"32"},"t_struct(Guardian)60958_storage":{"encoding":"inplace","label":"struct GuardianNFT.Guardian","numberOfBytes":"192","members":[{"astId":60943,"contract":"src/core/GuardianNFT.sol:GuardianNFT","label":"totalRetired","offset":0,"slot":"0","type":"t_uint256"},{"astId":60946,"contract":"src/core/GuardianNFT.sol:GuardianNFT","label":"tier","offset":0,"slot":"1","type":"t_enum(Tier)60933"},{"astId":60949,"contract":"src/core/GuardianNFT.sol:GuardianNFT","label":"path","offset":1,"slot":"1","type":"t_enum(GuardianPath)60940"},{"astId":60951,"contract":"src/core/GuardianNFT.sol:GuardianNFT","label":"createdAt","offset":0,"slot":"2","type":"t_uint256"},{"astId":60953,"contract":"src/core/GuardianNFT.sol:GuardianNFT","label":"lastUpdated","offset":0,"slot":"3","type":"t_uint256"},{"astId":60955,"contract":"src/core/GuardianNFT.sol:GuardianNFT","label":"nickname","offset":0,"slot":"4","type":"t_string_storage"},{"astId":60957,"contract":"src/core/GuardianNFT.sol:GuardianNFT","label":"isTransferable","offset":0,"slot":"5","type":"t_bool"}]},"t_uint256":{"encoding":"inplace","label":"uint256","numberOfBytes":"32"}}},"id":81}